:1000000030490020018A0000FD890000FD890000C0
:1000100000000000000000000000000000000000E0
:10002000000000000000000000000000FD8900004A
:100030000000000000000000FD890000FD890000B4
:10004000FD890000FD890000FD89000009640000B1
:10005000FD890000FD890000FD890000FD89000088
:100060000973000019730000297300003973000040
:100070004973000059730000FD890000FD890000EC
:10008000FD890000E5850000F58500000000000006
:100090000000000005860000FD890000FD890000C9
:1000A00000000000FD8900000000000000000000CA
:1000B0000000000000000000000000000000000040
:1000C0000000000000000000000000000000000030
:1000D0000000000000000000000000000000000020
:1000E0000000000000000000000000000000000010
:1061000008002000C0200020000000000100000066
:106110000700800044210020000000000100000072
:1061200006006400E02000200000000001000000E4
:1061300005005000182600200000000001000000AB
:1061400004000003C822002000000000010000003D
:1061500003000001C8210020000000000100000031
:1061600002000800082900200000000000000000D4
:1061700001001800881E002065B500000000000026
:10618000506E01000800014010B5064C2378002B2A
:1061900007D1054B002B02D0044800E000BF0123CB
:1061A000237010BDC800002000000000E070010056
:1061B000084B10B5002B03D00749084800E000BF8A
:1061C00007480368002B00D110BD064B002BFBD005
:1061D0009847F9E700000000CC000020E0700100C3
:1061E000E07001000000000070B50020084B9847E7
:1061F0000500084CFA218900A047074B18600749A1
:106200002800A047064B18600522064B1A6070BD97
:1062100015830000152801000000002040420F00F7
:106220000400002010E000E030B5084B1C68084A6C
:10623000002580214902013807D3002CFBD054608F
:10624000956013680B42FCD0F5E730BD04000020D8
:1062500010E000E030B5084B1C68084A002580219A
:106260004902013807D3002CFBD0546095601368B5
:106270000B42FCD0F5E730BD0000002010E000E04C
:106280000C4B1B68002B06D1EFF31083002B07D0BB
:106290000022094B1A70074A1368013313607047D4
:1062A00072B6BFF35F8F0022044B1A700132024BAB
:1062B0001A70F0E7E4000020E80000200800002049
:1062C000084B1A68013A1A601B68002B09D1064B6B
:1062D0001B78002B05D00122044B1A70BFF35F8F8F
:1062E00062B67047E4000020E800002008000020AB
:1062F000F0B5CE46474680B583B001AC0126667046
:106300000027A7702670210013202D4DA8472D4B84
:10631000994680231B034A46936126702100122070
:10632000A8478023DB0298464B4642469A61277075
:10633000667021001C20A8476670A7702670210097
:106340005220A84721003E20A84721003F20A8470F
:1063500021002F20A84721001420A8471A4B4246AD
:106360009A611A4B8022D2059A61802212069A61A4
:106370008022120290469A6180235B034A46936111
:10638000277021005320A847114AD36941460B4387
:10639000D36104220F4B1A806B469E70DF70052379
:1063A0006A4613705670694609200B4CA04769462F
:1063B0000C20A04703B00CBC90469946F0BDC046E7
:1063C000B9680000002800400029004080280040F3
:1063D00000040040003C0042ED8400001723002A26
:1063E00001D0180070478B00064A9B58002B03D041
:1063F000834205D01D23F4E7890088500023F0E78D
:106400000023EEE7341D002070B50022104B1A70F7
:10641000002310491F25104E0D4C0AE00D4908E0DD
:1064200023780133DBB223700F2B10D800211F2BF0
:10643000F4D9280018400122824048691042EFD068
:106440004A619B009B59002BEAD09847E8E770BD52
:10645000301D002000240040341D0020064A13781F
:1064600002210B431370012053681942FCD1536879
:106470001842F9D17047C04600240040064A1378FC
:1064800002218B431370012053681942FCD15368D9
:106490001842F9D17047C0460024004010B5124A96
:1064A000516980239B000B435361104A13780121EB
:1064B0000B4313700131012053681942FCD153681A
:1064C0001842F9D1094A137810210B431370084B75
:1064D00019004031002204C38B42FCD10822054B35
:1064E0001A60054B984710BD00040040002400408E
:1064F000341D002000E100E05D6400000023036023
:1065000043600122027283720132C2724372704789
:10651000F0B583B005000C001C4B984701A900237F
:106520004B70CB7023790B70237A8B702078184BCB
:10653000984700211F2D00D8164907222A409200B3
:10654000E77AA37A002B01D008231F43EB089B00B6
:10655000CB18D8690F269640B04397403A000243C3
:10656000DA61637A002B0BD18A690123AB40DB43EC
:106570001B041B0C13408B61074B984703B0F0BD05
:106580008A690123AB4013438B61F5E77D6400000A
:10659000ED840000002400405D64000010B51E4A38
:1065A000936904210B4393611C4B2022FF321A8311
:1065B0001A7D0523D20701D4180010BD03781B02F1
:1065C000C022920013404178C901FF220A401343C0
:1065D000817849001E220A401343C2789204802128
:1065E000C9020A40134302791204C02189020A40F9
:1065F00013430A4A536093685B035B0F08490824FE
:106600009C400C8093684B8043780B71138BDB05A7
:10661000DB0F1B01D0E7C0460004004000400041F2
:10662000EC00002030B50400254A1088538843430D
:106630008B420BD280229201224BCB18934205D978
:10664000214A1820214BCB1893420ED8204B5D686D
:106650008022D2022A435A602022FF321A831B7DF5
:10666000DB0703D41A4B5D60052030BD452C22D8D2
:10667000A300184AD3589F46154B1B8BDB0503D547
:10668000134B5D601020F0E789084900104BD96179
:1066900003E0890849000E4BD961A520000204439C
:1066A0000B4B1C80190001220B7D1342FCD0084BC0
:1066B0005D600020D9E7064B5D601720D5E7C04636
:1066C000EC00002000C07FFFFF1F00000000C0FFA3
:1066D0000040004164650100F8B52F4B1C885B88C1
:1066E0006343834207D22D4E18252D4BC318B34266
:1066F00006D8012600E00026631E1825184201D0A6
:106700002800F8BD013D9442FAD3264B1B7D123D73
:10671000DB07F5D5244C234B1C801D0001242B7D69
:106720002342FCD02024FF341E4B1C83002A2CD093
:10673000012305009D430023541EA44609E0CF1801
:106740007F783F023C432C8002339BB202359A4251
:1067500004D9CC5C6345F2DBA4B2F4E70E4B1B79A1
:106760000025002BCCD13F2ACAD8002E06D100220A
:10677000010004200D4B98470500C1E700220100ED
:106780001C200A4B98470500BAE7034B1B790025EC
:10679000002BEAD0B4E7C046EC000020FF1F000049
:1067A0000000C0FF0040004144A5FFFF2566000037
:1067B00070B51B4B1C885B886343834205D2194E1E
:1067C0001825194BC318B34203D8631E1825184265
:1067D00001D0280070BD013D9442FAD3134B1B7DBC
:1067E000123DDB07F5D52024FF34104B1C83002A13
:1067F00014D0012398430023561E04E002339BB2B9
:1068000002309A4208D90488A4B2CC54B342F5DAD3
:10681000CD18240A6C70F1E70025DAE70025D8E7E7
:10682000EC000020FF1F00000000C0FF00400041FE
:1068300010B51B4A138852885A43824207D2194C1A
:10684000182219494118A14207D8012100E000216E
:106850009B00013B1822184201D0100010BD134BC1
:106860001B7D133ADB07F8D5104B2022FF321A8329
:1068700080084000D86100290FD10D4A0B4B1A80C7
:10688000190001220B7D1342FCD0084B1A8B1C20EF
:106890000240501E82419200DFE7064AEEE7C04602
:1068A000EC000020FF1F00000000C0FF004000417E
:1068B00002A500001AA5000000B583B001AB80223C
:1068C0001A700A785A704A789A708A78DA701900C1
:1068D000014B984703B000BDED840000016807221A
:1068E000CB691A42FCD17047F0B5D6464F464646B2
:1068F000C0B58AB007000E001400396008009C4B38
:106900009847052800D12BE105001235994AD16935
:10691000012383400B43D36109A9237B0B70EDB2A4
:106920002800954B98472800944B9847207B0021DE
:10693000934B984733681C209B0705D50AB01CBCB5
:1069400090469946A246F0BD33681738DB07F5D468
:10695000142333603B6898461800854B9847050020
:10696000802308AA137000235370012208A98A709B
:10697000CB70E069266A002800D1AEE008AB187041
:10698000022308AA5370000CC0B211007D4B984737
:10699000002E00D1A6E008AB1E70022308AA537097
:1069A000360CF0B21100774B9847A38AFB80E38A3C
:1069B0003B81237E8022002B04D1734B9B789B0765
:1069C000DB0FDA01A16823690B4313432422A25C85
:1069D000002A02D08022D2051343A26A13432C223C
:1069E000A25C002A03D180229204914202D180222B
:1069F000120513432D22A25C002A02D08022120429
:106A000013432E22A25C002A02D08022D203134319
:106A10004246126813434246136080235B00536072
:106A20001235E8B2594B98470790FA239B00226829
:106A30005A43914663689A46554DA8470090019184
:106A40004B465800A84702900391208EA847049017
:106A50000591504F504A514B00980199B847020098
:106A60000B0004980599B8474D4E00224D4BB04796
:106A7000049005914846A84702000B000498059928
:106A8000B84702000B00484D00980199A847029AA8
:106A9000039BB0470022454BA847029A039B444DF5
:106AA000A847444B9847050080239B04A2689A425C
:106AB0001ED003004020FF2D00D93FE70024002016
:106AC000FF251D40240625430004FF231B04184016
:106AD00005434346DD60002030E700214046364B49
:106AE00098474BE701214046334B9847060052E751
:106AF000FA26B60053465E430098019902000B0047
:106B0000274CA047009001913000214B984700226C
:106B10002A4BB84702000B0000980199244CA0476B
:106B20000022224B204CA047224B9847041E0CD039
:106B300031000798224B98470238001B2B00FF2D8D
:106B40000CD8FF28BCD94020F8E67100481E079BEE
:106B50009C4660441A4B98470138EFE74020EDE629
:106B6000044A136A02210B4313621825D4E6C04677
:106B70006172000000040040F18300008183000086
:106B8000A1700000ED840000002000411584000089
:106B90001D4F01008943010095D626E80B2E113EBA
:106BA0000137010000002440894801000000F03F47
:106BB000213D0100B54E0100ED70000000000840CD
:106BC00015280100F8B504000768084EB04725688D
:106BD0002000B04783232B752B762B68022293432A
:106BE0002B602000B04701233B60F8BDDD6800004A
:106BF00003681A7E920707D502221A765B8B9B07E1
:106C00004120DB17184070475A8B520706D5596848
:106C1000C02292020A435A601820F4E70020F2E7EB
:106C200030B50268002301240225117E21420BD1D8
:106C3000117E294206D101339BB201899942F4D8D1
:106C4000122002E0002000E0002030BD10B50468F2
:106C500062688023DB02134363606162024B9847E2
:106C60000123237610BDC046216C0000F0B5DE463E
:106C700057464E464546E0B583B00600894605684E
:106C80004C882B681B01DB0F9A464B7A002B2BD1CB
:106C90006B68584A13406B604B461B7A002B27D118
:106CA0004B461B885B004A46527A920313430122EB
:106CB00013436B623000504B984701905346002BB2
:106CC00003D04B465B88012B3BD06B68494A13408D
:106CD0006B60019B002B3AD0019803B03CBC9046FE
:106CE0009946A246AB46F0BD897A444B9847CFE718
:106CF0004B461B885B004A46527A9203134380221C
:106D0000120213436B6230003B4B984701906B6853
:106D1000384A13406B600028DED13000384B98476A
:106D200001900028D8D14B461B881B0A78221343B8
:106D30005B004A46527A920301210A4313436B6275
:106D4000B8E76A688023DB0213436B60C1E7300059
:106D50002B4B984701900028BED1013CA4B280463D
:106D6000284B9B4615E0012C20D03000264B98473D
:106D700043465F1CBFB22823EB5C4A46526841463B
:106D8000535430001C4B9847013CA4B2002815D145
:106D9000B8465C4514D06B8B9B0627D5F37A002B45
:106DA000E3D05346002BDED1002CDED16A6880236D
:106DB000DB0213436B60013CA4B2EAE7B8460190E2
:106DC000B37A002B09D130000F4B98472823EA5C97
:106DD0004B465B6841465A547EE730000A4B984761
:106DE0006A68C0239B0213436B60ECE74123019365
:106DF00072E7C046FFFFFBFF216C00004D6C0000F6
:106E0000F16B0000FFFF0000DD680000F0B5DE461A
:106E100057464E464546E0B583B006000F0005686C
:106E20004C88324B98477B7A002B1DD16B68304AD7
:106E300013406B603B7A002B1BD03B885B007A7A57
:106E4000920313438022120213436B623000294BDA
:106E500098470190002813D0019803B03CBC90469D
:106E60009946A246AB46F0BDB97A3000224B98470E
:106E7000DCE73B885B007A7A920313436B62E5E7B9
:106E800030001E4B9847031E0190E5D1A046002418
:106E900020339946154B9B46164B9A46444515D0D0
:106EA0006B8B4A4613421DD03000D8477B681A5D71
:106EB0002823EA543000D047002806D16B8B0134D8
:106EC0005B07EBD51E23019300E00190B37A002B02
:106ED000C2D03000054B98476A68C0239B02134319
:106EE0006B60B9E741230193B6E7C046DD68000057
:106EF000FFFFFBFF216C00004D6C0000F16B0000F8
:106F000010B501238372C372014B984710BDC04670
:106F10006D6C000010B5002383720133C372014B06
:106F2000984710BD0D6E0000F0B5DE4657464E4640
:106F30004546E0B587B08046049116001F00002248
:106F4000002300218B463F24012021000096019759
:106F50005C4603944446059413E02024641A05001B
:106F6000E540A84614E0009C019D121BAB415C4625
:106F70004D462C43A346039C45462C4303940139BC
:106F800025D3202464420C19E7D40500A540A84667
:106F900004008C40A14692185B4114001D00059E20
:106FA0004F463E40B446049E47463E40B246664683
:106FB00057463E4303D00600264332002B00009C78
:106FC000019D9D42DBD8CED19442D8D8CBE7039B1C
:106FD0005846190007B03CBC90469946A246AB46BD
:106FE000F0BD10B5490840230024814202D21800A8
:106FF00010BD1C00091A631C9BB28842F9D94023BA
:10700000FF2CF4D814800023F1E7FFFFF0B583B024
:107010000F00160008AA117804004C434022BC421D
:1070200002D9100003B0F0BD002B14D102000800FB
:107030000021194CA04701003A0000230020174C02
:10704000A04700220123121A8B41120C1B041A4381
:1070500032800022E5E70022012BF9D10A0000234B
:1070600000210D4CA04702000B0000920193380054
:1070700000210A4CA047050080239B014022984232
:10708000CFD8790FF800009A019BA047EA00821A36
:10709000D2B252032A43DBE7752B0100296F0000AF
:1070A00010B582B004000E4B1B78002B07D00029CE
:1070B00005D10B4B5B78834210D01D200CE001A959
:1070C0000C701120074B98471120074B9847044B31
:1070D0005C7001221A70002002B010BD0020FBE796
:1070E000F4000020F183000081830000404B9842AF
:1070F00032D00AD93F4B98424ED03F4B98425BD09A
:107100003E4B984238D0002070478423DB059842DC
:107110000CD03B4B9842F6D1012917D000295DD005
:10712000022915D0032915D00020EDE7012907D049
:10713000002951D0022905D0032905D00020E3E71A
:107140003048E1E73048DFE73048DDE73048DBE74B
:107150003048D9E73048D7E7012907D000293FD088
:10716000022905D0032905D00020CDE72B48CBE725
:107170002B48C9E72B48C7E7012907D0002931D0A0
:10718000022905D0032905D00020BDE72648BBE72A
:107190002648B9E72648B7E7012907D0002923D0B8
:1071A000022905D0032905D00020ADE72148ABE72F
:1071B0002148A9E72148A7E7012907D0002915D0D0
:1071C000022905D0032905D000209DE71C489BE734
:1071D0001C4899E71C4897E71C4895E7032093E76C
:1071E0001B4891E71B488FE71B488DE71B488BE73F
:1071F000000800420010004200040043000C00425E
:10720000000400420300050003000600030007001D
:107210000300010003001E0003001F00030009001B
:1072200003000A0003000B0003001100030012001A
:107230000300130003000D0003000E0003000F0005
:1072400003001700030018000300190003000400E6
:10725000030008000300100003000C0003001600E8
:1072600030B587B00B4B6A4632CB32C232CB32C21A
:10727000009B83420BD001239A00694652588242F8
:1072800006D00133062BF7D1002007B030BD002314
:10729000D8B2FAE77C6601007047FFFFF0B50A4BF1
:1072A0001B78002B0CD1094F094E0A4D0024DE51EA
:1072B0005A1914600433182BF9D10122024B1A70A9
:1072C0008000024BC150F0BDF6000020F800002005
:1072D00099720000741D002000B583B008236A462F
:1072E000137001335370013393700133D370013342
:1072F000137101335371034B98476B46185603B013
:1073000000BDC0466172000010B5024B1B68002032
:10731000984710BDF800002010B5024B5B680120B3
:10732000984710BDF800002010B5024B9B68022062
:10733000984710BDF800002010B5024BDB68032011
:10734000984710BDF800002010B5024B1B690420BF
:10735000984710BDF800002010B5024B5B6905206E
:10736000984710BDF8000020F0B5D6464F46464677
:10737000C0B58AB006000F00140031600B689B078F
:107380000AD40B680520DB0700D497E00AB01CBCC8
:1073900090469946A246F0BD936A0593D36A069338
:1073A000136B0793536B089300250AE038009A4B40
:1073B00098470EE00F231840814530D10135042D48
:1073C00031D0E9B2AB0002AA0C201218D058002824
:1073D000ECD0431CF2D001040B0C9946000CC3B254
:1073E0009C460023020605D463465B09DB018B4AF9
:1073F000904643441F22604602409818403000786F
:10740000824680205146C907D6D552089B18303392
:107410001878C0B26346DB07CCD50009CCE700235F
:1074200033601C20B2E711207D4B9847227800255D
:10743000012A26D06368A2681343E26813432B43F2
:10744000227C617C002901D080210B43A17C002992
:1074500002D0802189020A43E17C002902D08021E8
:1074600089000A43217D002902D0802189010A4335
:107470003968022003438B4217D0002333601C205D
:1074800084E704AA0100A069664B9847030017200F
:10749000002B00D07AE73B7BDBB204AA12780530E0
:1074A0009A4200D072E70C35C4E77B689342E4D17E
:1074B00023787371237CB371002067E708005A4B6F
:1074C0009847052800D19FE0030012335749CD6942
:1074D000012282402A43CA6109A92425625D0A70FB
:1074E000DBB201931800524B98470198514B9847D3
:1074F000605D0021504B98472378012B19D03368E9
:10750000984604AB80221A7000225A7001219970AB
:10751000DA702378002B01D104AB9A70A36A05932B
:10752000E36A0693236B0793636B0893002705AD0B
:1075300011E03B680C2213433B60E0E74046364BCA
:1075400098470DE004A90870000CC0B23B4B984767
:107550000137042F07D0F9B2BB0058590028EDD0ED
:10756000431CEFD1F4E723787371237CB371A37CC0
:10757000F371237D3372002202ABDA802378012B72
:107580002AD06368A2681343E2681343217C627CBB
:10759000002A03D12A4A9278920701D58022134308
:1075A000A27C002A02D0802292021143E27C002AAF
:1075B00002D0802292001143227D002A02D0802234
:1075C00092011143424612681343424613605368C6
:1075D0000B4353600020D9E63068134B98471230B4
:1075E000C0B20F4B9847010002AB9A1DA0690D4B2A
:1075F000984703001720002B00D0C7E602AB0633E4
:107600001B7842461373BCE7084A136A02210B43F6
:107610001362182360E7C046ED70000000280040A8
:1076200015840000E36F0000617200000004004058
:10763000F183000081830000A1700000ED84000050
:107640000020004110B544791523012C01D0180009
:1076500010BD047A0023002CF9D1002A58D04B78B1
:10766000002B44D003681B7EDB0710D40A78D109B5
:107670000023002904D15309DB012E498C466344C1
:107680001F21114001228A409A610523DFE70A7811
:10769000D4090023002C04D15309DB01254CA44656
:1076A00063441F2414400122A2405A6103681A7ED9
:1076B000D20701D58A789A62C2790023002AC6D1FE
:1076C00002680421137E0B42FCD0117E002349077F
:1076D000BDD5538B5B0701D5042353838379012BDD
:1076E00002D0936A0023B2E7936A0023AFE70A78D7
:1076F000D1090023002904D15309DB010D498C462F
:1077000063441F21114001228A405A6100239EE7F1
:107710000A78D1090023002904D15309DB01054966
:107720008C4663441F21114001228A409A61002344
:107730008DE7C04600280040F0B5DE4657464E466D
:107740004546E0B591B005000C0016002960080020
:10775000C64B9847020005280DD0070012370300DA
:1077600021680520C90709D511B03CBC904699464F
:10777000A246AB46F0BD18270123F1E72168173078
:107780008907F1D4052A49D0B949C86901229A402C
:1077900013000343CB610FA92D239846F35C0B70B4
:1077A000FFB23800B34B98473800B34B9847434675
:1077B000F05C0021B14B9847F37A6B712423F35CA2
:1077C000AB712523F35CEB71F37E2B72337F6B720D
:1077D0002B6898461800A54B9847052826D01230EC
:1077E00000220E2306A98C4663441A80328A029234
:1077F0008023DB019A4200D1ABE019D9C023DB0121
:10780000029A9A4200D19FE080231B029A4200D044
:1078100027E1032306930023079312E09449086AA3
:10782000043A9A40130003430B62B4E71820D7E7E9
:1078300080239B019A4200D013E1102306930F3B53
:10784000079333680593F368039373690493337E56
:107850009B462623F35C9A4673689946002B00D119
:107860009FE080235B05994504D12723F35C002B1F
:1078700000D184E0737E002B02D0B37E4246937326
:107880002A68029FD369002BFCD10E3306AA9446C6
:1078900063441B8842469381059B039A1343049AD1
:1078A00013434A4613431F435B461B021F43534681
:1078B0005B071F432723F35C002B01D104331F43D5
:1078C000737E9B02327F52021343727F1202134374
:1078D0002422B25C520413432522B25C12041343E7
:1078E000B17AF27A114319433389FF2B7DD080227C
:1078F0005204174319432C23F35C002B03D1604B34
:107900009B789B0701D580231F432A68D369002BEE
:10791000FCD1434659602A68D369002BFCD1434609
:107920001F600EAB80221A7000225A70DA709A70B3
:10793000336B0A93736B0B93B36B0C93F36B0293E0
:107940000D9300270AAE5EE008230693073B0793DA
:1079500077E733680593F368039373690493337E81
:107960009B462623F35C9A4673689946002B14D0F5
:1079700080235B05994500D177E7002020E0336A3A
:107980001F00C0B23F4B984701000E2206AB9C4639
:10799000624438003C4B984712E0082306930023CA
:1079A00007932723F35C002B0ED0069B0093079BC5
:1079B0000E2206A98C466244B16A306A334FB8473A
:1079C000002800D0D0E655E7336A1F00C0B22D4B27
:1079D00098470100069B0093079B0E2206A8844649
:1079E00062443800294FB847EAE7F37E002B82D083
:1079F0008023DB041F437EE72000254B984707E0E8
:107A00000137042F0DD0F9B2BB0098590028F3D0EC
:107A1000431CF5D00EA90870000CC0B21D4B98474E
:107A2000EEE70023EB602B616B61AB61EB612B62D6
:107A3000AB626B620022EB85AB853033EA540133D5
:107A4000EA540133EA540133EA542868074B984753
:107A500004001149114B9847A400114BE550002038
:107A600082E61023069300230793EAE66172000082
:107A700000040040F183000081830000A170000039
:107A80000020004115840000E36F00000D7000002D
:107A9000ED700000ED840000997C00009D720000F4
:107AA000741D0020C2791C23002A01D118007047E0
:107AB000C28D92B2173B002AF8D10368DA69002A16
:107AC000FCD1198502211A7E0A42FCD00023EDE781
:107AD00082791C23002A01D118007047828D92B24E
:107AE000173B002AF8D10268107E4007F4D5D3690D
:107AF000002BFCD1538BDBB298061DD0980703D521
:107B0000022353831833E7E7580703D5042353832D
:107B10001A33E1E7D80703D5012353831233DBE798
:107B2000D80603D5102353833233D5E79B0603D5FC
:107B3000202353832133CFE7138D0B800023CBE722
:107B4000F0B5CE46474680B583B0050001911720B9
:107B5000002A04D103B00CBC90469946F0BDEB79E5
:107B60000530002BF6D02C68E369002BFCD1013ADC
:107B700093B29946002601271F4B984611E0731CCB
:107B80009BB2019A915D6A79012A17D089B21E00D1
:107B900028001A4B98474B46013B9BB299464345F8
:107BA00013D0237E3B42EAD1134B227E3A42E6D1E8
:107BB000012B19D0013B002BF7D1E0E70236B6B21A
:107BC000019AD35C1B021943E2E7237E9B070DD485
:107BD000094B0221227E0A420AD1012B0AD0013B25
:107BE000002BF7D10020B5E71220B3E70020B1E762
:107BF0000020AFE71220ADE7FFFF0000A57A0000EC
:107C0000F0B5D64600B584B0040001911720002AD3
:107C100003D104B004BC9246F0BDA3790530002B1B
:107C2000F7D02668013A93B29A460025042719E056
:107C3000002302AAD380911D2000154B98470028ED
:107C4000E7D1691C89B202ABDB88019A535562798E
:107C5000012A14D00D005346013B9BB29A460D4BAE
:107C60009A45D6D0337E3B42E2D10A4B327E3A422D
:107C7000DED1012B09D0013B002BF7D1D8E702352B
:107C8000ADB21B0A019A5354E5E71220C1E7C04682
:107C9000D17A0000FFFF0000F8B58000624BC558A4
:107CA0002C68E369002BFCD1237EA67D1E40302387
:107CB000EB5C3122AF5C1F40F30722D5EB8D9BB20A
:107CC000002B1CD0AA6A1378DBB2511CA962697917
:107CD00001290ED09BB2DB05DB0D2385EB8D013B2B
:107CE0009BB2EB85002B0CD1013323750133A375B7
:107CF00007E0517809020B430232AA62EBE7012345
:107D00002375B30706D50223237500223133EA54C5
:107D1000FB071AD4730765D5AB8D9BB2002B5FD0E0
:107D2000638BDBB21A0714D43F221340002B34D0EC
:107D30009A0711D51A223223EA54303B63837B071A
:107D400050D528006B6998474CE02800EB689847AD
:107D5000E0E737221340E9E75A0705D51E22322310
:107D6000EA542E3B6383EAE7DA0705D51322322370
:107D7000EA54313B6383E2E7DA0605D54222322337
:107D8000EA54223B6383DAE720221A42D7D0213219
:107D90003223EA54123B6383D1E7238DDB05DB0DED
:107DA000DAB2696A0A706A6A511C696269790129E2
:107DB00010D0AB8D013B9BB2AB85002B12D10433AD
:107DC000237500222E33EA54BB070BD528002B69FC
:107DD000984707E01B0A53706B6A01336B62E8E750
:107DE00004232375F30604D5102323752376FB069D
:107DF0000ED4B30604D52023237523763B070BD47A
:107E0000330704D5082323752376BB0608D4F8BDB1
:107E10002800EB699847ECE72800AB699847EFE743
:107E20002B6A28009847F2E7741D002010B5082837
:107E300003D880001D4B1B589F46002034E01C4B8C
:107E4000186931E01B4B187D0007800F431C1A484E
:107E5000584329E0164B586926E0154B1B68002053
:107E60009B0721D5134980225200CB681342FCD0D6
:107E70000F4B1A6824231340042B01D00F4813E042
:107E800000200F4B98470A4B9B681B041B0C584360
:107E90000AE02823074AD35C00209B0704D5044B43
:107EA000D86801E08020000210BDC0469466010041
:107EB00010010020000C004000093D00006CDC02B5
:107EC0001584000070B50B4C237D857846780278C8
:107ED0000321114089000C2293430B430B3A32409B
:107EE000920140218B431343ED017F2213402B432A
:107EF000237570BD000C0040F0B5CE46474680B5F6
:107F0000194B99469B6941788C4605780679C77864
:107F10004479807801210840800004229343034380
:107F200060460840C00004329343034338000840D1
:107F300080014027BB43034330000840C001802636
:107F4000B3430343072005402D02084803402B4359
:107F500021400903064803400B434A4693610CBC89
:107F600090469946F0BDC04600100040FFF8FFFF64
:107F7000FFEFFFFF082803D88000294B1B589F46BE
:107F800017204BE0274A137D02210B431375002075
:107F900044E0254A936902210B43936100203DE0B0
:107FA000204A138A02210B431382002036E01E4A26
:107FB000536902210B43536100202FE01B490B68DA
:107FC000022213430B60174B1A831900FE32CB6851
:107FD0001342FCD0154A9168124B19625268DA615B
:107FE00000221A8319000132FF32CB681342FCD001
:107FF0000E4B1B689BB20B4A138300200EE009490D
:1080000028228B5C022003438B5408003821263A37
:10801000435C1342FCD1002000E000207047C046C2
:10802000B8660100000C0040001000401001002064
:10803000082832D880001A4B1B589F46194A137DD6
:1080400002218B43137500207047174A9369022160
:108050008B4393610020F7E7124A138A02218B4376
:1080600013820020F0E7104A536902218B435361C9
:108070000020E9E70D4B1A6802218A431A601B6849
:108080009BB2084A13830020DEE7064928228B5C56
:10809000022083438B540020D6E71720D4E7C04644
:1080A000DC660100000C00400010004010010020C0
:1080B000F0B5CE46474680B587B080225200434B8C
:1080C0009A60FD3A424B9A60424A53681E218B43A4
:1080D00053608023DB059B78022B09D08023DB05CE
:1080E00001229A7101329A701A009379002BFCD008
:1080F00004A80125457085700571072303700024CD
:108100004471C570344B98470420344EB04701A9E0
:108110004D604C700C724C7203230B700020304B7E
:10812000984706202F4B98476B465C701D709C70DB
:1081300068462D4B98470620B04724491022CB684B
:108140001A42FCD001AC0126029600256570062378
:10815000994623702572657221000020204B9846B5
:1081600098471A4A137D80210B4313751F4B98477C
:108170001F4FBE717E713E71666065704B46237005
:108180002572657221000020C0470020194B9847D6
:108190000020194B98473979C9B2184B9847184BAA
:1081A00098420ED88023DB059B78002B09D08023D2
:1081B000DB0501229A7100229A701A009379002B34
:1081C000FCD007B00CBC90469946F0BD000C0040B6
:1081D0000014004000400041F97E0000757F00005F
:1081E0002982000031800000C57E00000582000069
:1081F00000040040D582000015830000152801000E
:10820000001BB700064A536940210B43536101220A
:10821000044B1A7019000B781342FCD17047C0460A
:10822000000400400018004070B504000D784B7841
:10823000002B02D08023DB001D434B7A002B02D0A1
:1082400080231B011D43486801280FD9431E184293
:1082500031D102282DD90223002201325B0098423D
:10826000FBD880235B011D43120415430B7A002BBE
:1082700002D080239B011D430426A6401149124AC7
:108280004B6813401E42FBD1104B9847A4000D4B86
:108290009C466444226A80235B001A402A4322627F
:1082A0006146094A4B6813401E42FBD1084B984770
:1082B00070BD0022D5E7000480239B0018430543CE
:1082C000D4E7C04600180040FC07000081620000AF
:1082D000C162000010B504000422824009480A4926
:1082E00043680B401A42FBD1084B9847A400054B4A
:1082F0009C466444226A80235B0013432362044B40
:10830000984710BD00180040FC0700008162000083
:10831000C1620000F8B504000422824012481349EB
:1083200043680B401A42FBD1114B98470E4F08345B
:10833000A400E0590007000F0E4B98470600E559CE
:10834000ED04ED0FE459240C0B4B9847002D07D199
:10835000012C07D921003000084B9847060001E0A6
:108360000134E6403000F8BD00180040FC07000072
:10837000816200002D7E0000C1620000152801000E
:1083800010B50400094B9847A000094B9C46604477
:108390008022835840210B4383504031403A435858
:1083A0001A42FCD0034B984710BDC04681620000C2
:1083B00000180040C162000010B50400094B984746
:1083C000A000094B9C4660448022835840218B4387
:1083D00083504031403A43581A42FCD1034B9847EE
:1083E00010BDC0468162000000180040C16200005C
:1083F00070B504000D00054B98472A780F231340F1
:108400002034A400024AA35070BDC046B9830000C6
:108410000018004010B50400064B98472034A40013
:10842000054BE4582407240F044B98472000044BC5
:10843000984710BD8162000000180040C162000032
:108440001583000030B5D378002B35D11378802BFD
:1084500029D01B0680246402234354780225AC43B0
:1084600006D19478002C20D18024A40223434160BB
:108470005478013C012C1CD90D042D0CA024E405DA
:108480002C431C4384620D0CD02424062C431C4333
:108490008462D478002C22D15B031CD59378012B05
:1084A0001ED0416117E00023D7E7C024E402234334
:1084B000DDE70D4C2340DFE741600C04240CA023D2
:1084C000DB05234383620C0CD0231B06234383620A
:1084D000D378002B03D15378013B012B02D930BD57
:1084E0008161F8E78160FAE7FFFFFBFF10B50A0042
:1084F000C1090023002904D14309DB0105498C4649
:1085000063441F242040012181401800024B9847FA
:1085100010BDC04600280040458400007047FFFFA2
:1085200010B5054B9847054B9847054B9847054BA9
:108530009847054B984710BDB1800000F1620000DC
:108540001D8500009D6400001D850000931C9B009C
:108550001950022A09D0032A0CD0012393401A0093
:10856000037E1343037600207047037E10221343DB
:108570000376F8E7037E202213430376F3E7FFFF39
:1085800070B58000164BC45823689D7A227E637EA6
:1085900013401D40EB0706D4AB070BD4EB0610D4F9
:1085A000AB0615D470BD2000A3689847012322684C
:1085B0009372F1E72000E3689847022322689372E0
:1085C000ECE7200023699847102322689372E7E7BD
:1085D000200063699847236820229A72E2E7C04628
:1085E0008C1D002010B50020014B984710BDC046DF
:1085F0008185000010B50120014B984710BDC04691
:108600008185000010B50220014B984710BDC0467F
:108610008185000030B585B001AA0B4B32CB32C248
:10862000019B98420DD0029B984208D00023039AE8
:10863000824202D0180005B030BD023302E00123AF
:1086400000E00023DBB2F5E728670100F0B5C6467D
:1086500000B58AB004000D0016000800AA4B984728
:10866000804609AB1B221A705A7002329A7003A915
:10867000A64B0C330A0083CB83C283CB83C2002377
:10868000A360E360236163612376637643469A00C7
:108690009F4BD45025603423F35CA376F378082BEA
:1086A00008D023712B680520DB0708D50AB004BC6D
:1086B0009046F0BD17204246D207F7D4F1E7EB7A97
:1086C00017309B07F2D42B689B07EFD4337C002B29
:1086D00012D1337F002B1BD143465A0003A9531CF0
:1086E0009B0058584346DB005B58D9B2042923D875
:1086F0008B008849CB589F4602A901238B7000222A
:10870000CA70327E0A704B70307D834B9847E0E729
:1087100002A901238B700022CA702432B218127889
:108720000A704B701F33F31818787B4B9847D3E7C8
:108730007A494B6918434861F378082B00D185E0EA
:1087400001A933780B7009AB42469F5C3800744B2B
:1087500098473800734B9847F378F2791343B288FF
:108760001343727A002A02D0802252021343B27A53
:10877000002A02D0802292021343F27A002A02D009
:10878000802252031343327B002A02D080229203BC
:10879000134371788901B278D201114319432268D9
:1087A0001369002BFCD1296022681369002BFCD1CE
:1087B000B3792B73717B4B1E99418900B37B002BDE
:1087C00001D00123194322681369002BFCD1FF3328
:1087D0002B71002904D022681369002BFCD1697128
:1087E000337A6B7322681369002BFCD12379042B35
:1087F00059D0082B74D01720002B00D056E71369EE
:10880000002BFCD1338DAB8222681369002BFCD185
:10881000738DAB8322681369002BFCD1B38DEB837E
:10882000002043E73D498B691843886184E73B4951
:10883000CB691843C8617FE738490B6A184308625F
:108840007AE7364B596A0843586275E74346013365
:10885000022B00DD74E703ABD11C8900C95802323A
:108860009200D358DAB2042A00D969E793002E4A5D
:10887000D3589F46294A53691943516160E7274AF3
:108880009369194391615BE7244AD3691943D16124
:1088900056E7224A136A1943116251E71F4B5A6A7D
:1088A000114359624CE71369002BFCD12833F35C68
:1088B0002B7522681369002BFCD12933F35CEB760E
:1088C00022681369002BFCD12A33F35C2B772268D2
:1088D0001369002BFCD12B33F35C6B770020E5E6AA
:1088E0001369002BFCD1B36A6B6122681369002BFA
:1088F000FCD1F36AEB6122681369002BFCD1336B66
:108900002B620020D2E6C0461586000028670100D1
:108910008C1D002000670100ED8400000004004071
:10892000F18300008183000014670100026813696D
:10893000002BFCD1137101680B69002BFCD1803333
:10894000537153795BB2002BFBDB02681369002B78
:10895000FCD10379042B05D0082B09D00020002B73
:1089600003D07047107DC0B2FBE7908A80B2F8E771
:108970005069F6E710B504682369002BFCD1037930
:10898000042B06D0082B28D0002B13D01723180057
:1089900010BD17230129FAD8837E002B05D0D2B24F
:1089A000611830310A700023F1E7D2B264182277DF
:1089B0000023ECE717230129E9D8837E002B05D09B
:1089C00092B2183149000A530023E0E792B20C3109
:1089D00049006418A2800023D9E717230129D6D8BB
:1089E000837E002B05D10631890064186260002364
:1089F000CDE70C3189000A510023C8E7FEE7FFFFED
:108A000010B51A4A1A4B9A4211D01A00194B9A42C1
:108A10000DD2194A03339B1A9B0801339B00002295
:108A2000134812498C58845004329A42FAD1134A9E
:108A3000134B9A420AD2D34311495B1803218B434B
:108A400004339B18002102C29342FCD10D4AFF213E
:108A50000D4B8B4393600D4A53687F390B43536032
:108A60000B4B98470B4B9847FEE7C046E070010060
:108A700000000020C400002004000020C8000020E6
:108A80002C29002000ED00E0000000000040004123
:108A90002550010039D70000F0B5C64600B50C00DE
:108AA000904600280FD1002A11DD8F18094E0A4D7B
:108AB000306821002B6898470134BC42F8D1404609
:108AC00004BC9046F0BD01235B429846F7E7804620
:108AD000F5E7C046A01D0020981D0020F0B5C64651
:108AE00000B50E0015000138022810D8002A11D058
:108AF00000240C4B98460C4F43461868315D3B6888
:108B00009847002808DB0134A542F5D106E001248E
:108B1000644203E0140001E001246442200004BC2C
:108B20009046F0BDA01D00209C1D00200300064AB9
:108B30001268002A04D0044A1068C31813607047F2
:108B40000249014A1160F6E728010020304900205F
:108B500001204042704780239B014B6000207047FA
:108B6000012070470020704700BEFEE770470120DB
:108B70004042704770B582B005000E0000226B467F
:108B8000DA80064C6B46991D2800A0470028F9D1D1
:108B90006B4606331B88337002B070BDD17A00007B
:108BA00070B505008CB2034E21002800B0470028A4
:108BB000FAD170BDA57A000010B582B06B46DC1DFD
:108BC000012221000F48104B984772B6BFF35F8F08
:108BD00000220E4B1A700E4B1B7821780D4AD1548F
:108BE0009B2B0AD001330A4A13700122074B1A70DB
:108BF000BFF35F8F62B602B010BD0022044B1A7043
:108C0000F3E7C0462C010020017C00000800002092
:108C1000FD01002060010020F0B591B08023DB054C
:108C2000009300230193FF2269460A8100228B7280
:108C3000CB7201242421684644540131445401314B
:108C40004354013143540A93053143540131435491
:108C500005930382C37602760277427613238376E6
:108C6000427780235B0303932F4B0C932F4B0D9381
:108C700001235B420E930F9396231B0208932C4D06
:108C80002C4B1D602C4A2D4B1A602D4A2D4B1A601F
:108C90006A468421C90528002B4B98472B4F3B6817
:108CA000986800212A4EB0473B6858680021B047B9
:108CB0002E683000274B98471F2318408440264BCE
:108CC0001C602A68D369002BFCD13368022213434D
:108CD0003360174B1B68DA69002AFCD1596880227F
:108CE00052020A435A600121114AD171DA69002AFD
:108CF000FCD1DA69002AFCD15968802292020A4329
:108D00005A6001210A4A9171DA69002AFCD113499B
:108D10000020134B984704228423DB059A75FC320C
:108D20000D4B1A6011B0F0BD0300040003000500F4
:108D30002C010020A01D0020A18B00009C1D002004
:108D4000758B0000981D002039770000600000201E
:108D500019570100D972000000E100E0B98B000052
:108D60009D720000F0B583B0060001916B469D88AE
:108D7000054C064F2A0031002000B8470028F9D1E1
:108D8000019803B0F0BDC0462C010020417B0000DB
:108D900070B502001F4B1C781F4B1B789C421ED3E2
:108DA000E31A1E4803701D4B1878002830D09B280A
:108DB0001BD9194B1C709C20184B1870081C9C293F
:108DC00001D9174B1878C0B2002821D0124B1B785C
:108DD000441EE4B201341419124D00260EE02000A6
:108DE0006438C31A0D480370DDE7031C884200D9BC
:108DF0000B1CD8B2E8E73300944207D0E95C11704D
:108E000001329B2BF7D00133DBB2F5E7024A137036
:108E100070BDC046FD010020FC010020FE010020C5
:108E20004C6701006001002000B583B06B46D8712B
:108E3000073301211800024B984703B000BDC0461C
:108E4000658D000070B5164B1A88002A23D0131CBC
:108E5000042A00D805239BB2124A107884002418F3
:108E600064005C43FA25AD005D432E1B0E4B984712
:108E700064210E4B9847FF20084064006043642142
:108E80000B4B98478119002900D12900012280202D
:108E9000084B984770BD8020074B9847FAE7C046BB
:108EA0000A000020FF010020A1560100F52A010060
:108EB00015280100D19400006195000030B587B0FD
:108EC00001AC01256570A5700023E37002332371A6
:108ED0000220114B984701000822092068440F4BDB
:108EE000984711236B4434221A70223A5A70E57362
:108EF0000B4B18880B4B984720820B4B1D700B4B6C
:108F00001D70802323706E3B220000210120084C3D
:108F1000A04707B030BDC046899500008B500100C6
:108F20002C020020C1E4000000020020A41D00204B
:108F3000819300000122054B1A700022044B1A7025
:108F4000044B1A78044B1A707047C046A61D0020C7
:108F5000A41D00200C000020A51D002070B50500F8
:108F60000C005A78022A1DD0D1B2022906D9042A4F
:108F70002CD0052A15D11D4B984712E0002A10D19C
:108F800019795A799878DB781B02034318480380D3
:108F9000184B1970184B1A702000184B9847184B33
:108FA000984770BD174B1B78002BFAD10122154B47
:108FB0001A700232144B1A700800104B98472A237B
:108FC000124A21002800124CA047EAE720000B4B70
:108FD00098470122642180200E4B984702220E4BB5
:108FE0001A7012320D4B1A70DBE7C046C9950000AB
:108FF0000A000020FF0100200C000020E195000085
:10900000458E000000020020A41D002050670100D2
:1090100081930000D1940000A61D0020A71D002010
:1090200010B500210E4A11700E4A1278012A03D0A1
:1090300000220C4B1A7010BD002B03D00A4B1B787A
:10904000002B06D1094B1A78074B1A70084B98472A
:10905000EEE7013B044A1370064B9847E8E7C04629
:1090600000020020A41D0020A51D00200C000020EF
:10907000458E0000BD8E000010B5114B1B78012BF2
:1090800002D0022B0BD010BD0E4B1B78002BFAD157
:109090000D4B1A780D4B1A700D4B9847F3E70220D1
:1090A0000C4B98470C4A1378013BDBB21370002B32
:1090B000E9D10A4B98470122014B1A70E3E7C046F9
:1090C000A61D0020000200200C000020A51D00208D
:1090D000BD8E00009D950000A71D0020458E00005C
:1090E000F0B5C64600B582B0041E33D04368002BED
:1090F00030D0007A1130C0B2184B9847051E29D0E5
:109100000F239846804443460193071D042201A97A
:109110003800134EB047022221004046B0471123C9
:109120009846A84443460193381D042201A9B0473C
:10913000227A61684046B0476B46991C237A0B80BF
:1091400028000C300222B0470123AB7329000548E8
:10915000054B984702B004BC9046F0BD99C500008D
:109160008B500100241E002095C70000F0B5CE46AC
:10917000474680B583B00E002F4BDB78834216D074
:109180002E4B1D00723501221400197881420FD038
:1091900001320633AB42F7D1022E34D0032E22D057
:1091A000002E36D0FF2399467F3B984619E00024D5
:1091B000214F65002919490079180B7998464B7998
:1091C000994602226B46981D1D4B98472D196D003C
:1091D0007D19FF232B71022E19D0032E07D0002EEC
:1091E00006D0032604E0FF2399467F3B98460226DB
:1091F0004346802B0FD04346812B14D003B00CBCC8
:1092000090469946F0BDFF2399467F3B984601263C
:10921000EEE7FF23994633006A46063201214846AD
:10922000084CA047EAE733006A4606320121484667
:10923000054CA047E2E7C046A81D0020B11D002054
:109240008B500100219000006598000010B50B487C
:109250000B4B98470B4B98470B4B984700200B4BF9
:1092600098470B4B19007831FF221A705A70063359
:109270008B42FAD10748084B984710BD241E0020A6
:1092800089C70000358F000045960000FDCE000024
:10929000AC1D0020E190000065FD000010B50379D1
:1092A000427912021A4383791B041A43C3791B06BD
:1092B00013431A78802A02D0812A12D010BD017A75
:1092C000427A12020A430178447824020C438178DE
:1092D00009040C43C17809062143807A0A4CA0474F
:1092E000ECE7017A427A12020A43017844782402B8
:1092F0000C43817809040C43C17809062143807A24
:10930000024CA047DAE7C0465D8F0000759600006A
:1093100010B5124B9847002800D110BD104902200B
:10932000104B9847104B1B78002B10D00F4B1B7A1B
:10933000002BF2D000210D480D4B9847041EECD0B5
:1093400004300C4B984720000B4B9847E5E70B4B3C
:1093500098470122044B1A70E8E7C0460DE500006B
:10936000201E002059E4000002020020241E0020DC
:10937000CDC700009D92000055C600004D92000030
:10938000F0B587B00C001178557801280BD0002873
:1093900003D116246C4401382080802907D081290C
:1093A00044D007B0F0BD002CF7D1404CF5E7D9B25E
:1093B0003F4B0293012301933E4B1B780093130014
:1093C0000A00210002203C4EB047002806D10323AA
:1093D000220001212800394CA047E2E7354B1F78D5
:1093E000374B1B79FF2B0FD0364B18007230012200
:1093F00016001978FF2908D0013206338342F7D1CD
:1094000001372C4B1F70CCE700262D4973009A19A9
:1094100052008A188020107155717F389070D77073
:10942000100002222100284B9847E9E7D9B2204BCF
:109430000293012301931F4B1B78009313000A0032
:10944000210002201C4EB047002815D0194B1F7870
:109450001B4B1B79FF2B16D01A4B180072300122C0
:1094600016001978FF290FD0013206338342F7D155
:109470000137104B1F7094E70323220001212800BD
:10948000124CA0478DE700260D4973009A1952002F
:109490008A1881201071557180389070D770100033
:1094A00002222100084B9847E2E7C0462C02002028
:1094B0006D9100000102002085E500002190000070
:1094C000A81D0020B21D00208B50010065980000EF
:1094D00070B50D001400802802D0812819D070BD0D
:1094E0001848194B984700280BD1164B9D60174A16
:1094F0001A61002C09D100221A731248144B9847A4
:10950000EDE71048134B9847EFE701220D4B1A7314
:10951000F3E711480C4B984700280BD10E4B9D6088
:109520000E4A1A61002C09D100221A730A48084B0E
:109530009847D4E70848074B9847EFE70122064BC6
:109540001A73F3E70402002021C90000799000009B
:109550004DC90000E1C8000018020020B9980000C1
:1095600010B5802802D0812804D010BD0348044BD8
:109570009847FAE70348024B9847F6E704020020B1
:10958000E1C8000018020020012801D001487047FE
:109590000148FCE758000020201E0020002806D0CB
:1095A000012809D080221203064BDA61704780221D
:1095B0001203044B5A61F9E780221203014B9A61AE
:1095C000F4E7C04600280040BFF34F8F024A034B28
:1095D000DA60BFF34F8FFEE70400FA0500ED00E00C
:1095E00010B5010002220248024B984710BDC04648
:1095F0002C0200208B5001007047FFFF10B582B095
:1096000001AC812323707B3B63700020084B98479B
:109610000122084B1A700423074A1370074A13707B
:10962000023B220000210120054CA04702B010BDE2
:10963000F9950000380200202E0200202F020020A1
:10964000819300000023064A1370064A1370064AED
:109650001370064A13706422054B1A807047C04687
:109660002F0200202E0200203802002030020020AD
:109670007C1E002070B51C005B78052B3BD0072BAF
:1096800000D1ADE0032B00D070BD664B1B780422E7
:109690009343F9D10800644B98474022634B1A80EA
:1096A000E11C3C3A6248634DA847E11D0422624830
:1096B000A847E27A614B1A70614E21000C310222F8
:1096C0003000A8473388632B02D864225C4B1A8091
:1096D000574B1A685B4B1A60574B1B689B185A4ACA
:1096E000136001224F4B1A70554B198800228120BC
:1096F000564B9847C8E74B4B1B78022BC4D14022EE
:109700004A4B1A80E378227912021A4363791B04C8
:109710001A43A3791B0613434A4A12689342B3D1F2
:1097200000224B4B1A704B4DE379227A12021A43F6
:109730002100093128003F4B9847E279237A1B0228
:1097400013433B4A106880218902081AE178227984
:1097500012021143627912040A43A17909061143E6
:1097600041182A0000203C4DA847E279237A1B02C9
:109770001343344A11688C4663441360324A1268BA
:10978000934220D32C4B18680022002809D0802354
:109790009B029C466044002219784A40013398425B
:1097A000FAD1264B1B78934214D0214B1A68254BD3
:1097B0001A6001221B4B1A70214B1988002281204C
:1097C000224B984760E71E4B1988002281201F4BCF
:1097D000984759E78120214B9847214B984753E7F9
:1097E000104B1B78042B00D04EE7A178E3781B02C6
:1097F0000B43217909040B4361790906194307D00A
:109800000522084B1A7000228120104B98473BE735
:109810000522044B1A700022FA21890081200B4B8B
:10982000984731E72F020020E1950000841E0020B8
:10983000801E00208B500100301E0020741E00206E
:109840007C1E002034020020781E0020D1940000ED
:1098500030020020341E0020E9CD00006195000098
:10986000FD95000010B51C0000220E4B1A700E4B27
:109870001B78032B09D0002C03D00B4B1B78042B37
:1098800009D00022084B1A7010BD084B198881209E
:10989000074B9847EFE7002206498120044B984781
:1098A000F2E7C046380200202E0200207C1E002075
:1098B000D1940000B80B000070B5A4B05B4B1B78CE
:1098C0005A1E022A54D85A4B1B78002B06D0594BEB
:1098D000198800228120584B98474DE0574B1B6850
:1098E00057490A780132D2B20A700B2A36D0554A4B
:1098F0001168554A1288D2188A4235D9C91A524A73
:109900001180042202A94A7000228A700A00CB70DA
:10991000190A1171190C51711B0E93714A4B1B8856
:1099200002AAD371190A1172002151721B0E93728F
:109930000322464B1A70023A3D4B1A7001323B4BE0
:109940001A70812302AA1370763B0120404CA04775
:10995000002240498120384B98470DE081203E4B42
:1099600098473E4B984707E04021374A1180C8E7A7
:10997000042B03D0052B04D024B070BD384B98477E
:10998000FAE78120344B98478822002102A8354B02
:109990009847012302AA137104AA334B03CB03C2D5
:1099A0001B88138080239B010893802292020A92D5
:1099B0000B930133FF330C932C4B0D932C4B1B68F3
:1099C00001930E93342202AB9B5C02210B4302A94C
:1099D0008B5402328B5C01210B4302A98B544C1C2B
:1099E00024AE0023082031250FE05B006B40DBB282
:1099F000013AD2B2002A05D059B20029F5DB5B004A
:109A0000DBB2F5E70134B44203D0227853400200C0
:109A1000F2E702AA1370882316490020164CA047CB
:109A20003220164B9847164B9847A5E72F02002087
:109A3000380200207C1E0020D19400003402002057
:109A400030020020781E0020841E00202E020020FC
:109A500081930000102700006195000045960000EA
:109A6000FD9500009D5001007C670100FF60000033
:109A7000301E002000FF0300E9CD00005562000009
:109A8000C9950000F0B5C64600B584B014001F00AB
:109A9000294BCB1840031D18002F1AD0274B5A1EF4
:109AA00095421CD87A1993421FD3C91980239B0170
:109AB000994220D8224B98463E1C102F00D91026E0
:109AC000B6B2320029006846C047002E28D00023D5
:109AD0001FE01C4B1C4AD9211C481D4CA0471D4BA4
:109AE000194ADA2119481A4CA0471B4B164ADB21A8
:109AF0001648174CA047194B134ADC211348144C45
:109B0000A047FF21914212D10133DBB29AB29642B3
:109B100006D96A46D25C002CF3D021780134F1E7F3
:109B2000BF1BBFB2AD19002FC6D1012000E000203D
:109B300004B004BC9046F0BD0021000000610000AC
:109B40008B500100886701000C69010098670100D3
:109B5000C94F0100D8670100F467010028680100BF
:109B600010B50B4AFF231A4206D10A4B0A498C460C
:109B70006344934206D110BD084B094A5921094854
:109B8000094CA047094B064A5D210648064CA047F0
:109B9000002100000061000000C0FFFF58680100C4
:109BA000C868010098670100C94F0100886801007A
:109BB00070B515004403134808182418124A501EA3
:109BC00084420DD8E018824210D3C9188022920135
:109BD000914211D81A00210028000C4B984770BD03
:109BE0000B4B0C4A72210C480C4CA0470C4B094AF9
:109BF00073210948094CA0470A4B064A74210648BC
:109C0000064CA04700210000006100008B500100BD
:109C1000D8670100D468010098670100C94F0100AE
:109C2000F467010028680100F0B5DE4657464E464D
:109C30004546E0B593B001929A46464C0C19400354
:109C40002518002B47D0444B5A1E954249D85246FE
:109C5000521993424BD3D346514480239B019942DE
:109C60004BD83E4B1B68002B00D098473F272F4016
:109C7000EC1B4026F61B5E4500DD5646B3B29B4604
:109C80004022FF2102A8364B98473B0002AA944687
:109C9000634400933604370C3A0001991800314BA5
:109CA0009847314B9847314E402202A92000B047D7
:109CB0000528F9D02E4B984753465A469E1AB6B2FD
:109CC000EC19019B9946B944002E3BD0244B9B468E
:109CD000244B984631E0274B274A8A212748284CB5
:109CE000A047284B244A8B212448254CA047264BCB
:109CF000214A8C212148224CA047244B1E4A8D2109
:109D00001E481F4CA0479FB24022FF2102A8D847FF
:109D10003A0049460098C047134B9847134D4022DC
:109D200002A92000A8470528F9D0114B9847F61B37
:109D3000B6B2E419B944002E04D0331C402EE2D947
:109D40004023E0E713B03CBC90469946A246AB46A0
:109D5000F0BDC04600210000006100003C02002070
:109D60009D5001008B50010081620000D966000007
:109D7000C162000088670100E46801009867010083
:109D8000C94F0100D8670100F4670100286801008D
:109D900070B544030C482418FF239C430B4B013B34
:109DA00080229201A6189C4207D8094D2000A8479E
:109DB0000134FF34B442F9D170BD064B064AC221CA
:109DC0000648074CA047C046002100000061000083
:109DD00031680000D8670100F4680100986701004D
:109DE000C94F010010B513000022014CA04710BD5F
:109DF000859A000010B5014CA04710BD859A00005F
:109E000010B5054B1B68002B04D098470123584020
:109E1000C0B210BD0020FCE7B4030020012909D026
:109E2000002902D002290DD070470A4B1A888018E9
:109E30001880F9E7074A13880F33C0180F23984397
:109E40001080F1E7034A13883F33C0183F2398433B
:109E50001080E9E7BA03002030B5002919D0FF24AB
:109E600013E02300150A6B401D096B4012025A4093
:109E70001D036A405B015A4092B203005D1EAB4174
:109E8000C018013989B2002903D00028E9D003782D
:109E9000E8E7100030BDFFFFF0B5DE46574680B55D
:109EA00089B0019002919346109A002A0DD09246F3
:109EB0009A445B449DB25E46029C0120AB453ED075
:109EC000224F002C08D1002039E000229246F0E712
:109ED00004AB5C89002C31D0102304AA2100019826
:109EE000B84704AB9A88AA42F2D2DB88D3189BB257
:109EF000B342EDD9AB4201D21E00E9E7A91A89B2FB
:109F0000B24215D904AB5B8903930B00ED1AADB2D5
:109F10005246002A08D010340919D21A9246C91A9A
:109F200089B20198094CA047AE420DD0039CC8E706
:109F3000AB1B9BB25E46029A0392E7E7002009B092
:109F40000CBC92469B46F0BD0120F8E7B19B000097
:109F5000F0B5DE46474680B587B004900591957907
:109F6000D3791B021D43177953791B021F432C0A17
:109F700064B2002C2FDB1C4B03931C4B984611E062
:109F8000002D2AD01A4B00932B003A000599049813
:109F9000184EB047002820D0290015E0013C64B2DB
:109FA000631C1AD0002CEBD0013DFF3DADB2104B2D
:109FB000009380235B003A00059904980D4EB0474A
:109FC0000028EBD0802149007F18BFB2039A0848CF
:109FD000C0470390E2E7044B0393039807B00CBC1F
:109FE00090469B46F0BDC046FFFF0000599E000012
:109FF00070020020999E000070B5164B1C78002C52
:10A0000026D0154B1B88834216D00123124EDAB29C
:10A0100094421BD91D00591C9A00B25A824201D0A9
:10A020000B00F4E79B000C48C018AD000A4B5D190B
:10A030006B88002B03D070BD07480025F5E7074B60
:10A04000074A8C21FF310748074CA0470020F2E760
:10A050000020F0E7B00300208C0300208869010095
:10A06000706A0100A4690100C94F010010B5054BD9
:10A070009847002804D08378C0780002184310BDA8
:10A080000020FCE7F99F000010B504000E4B984734
:10A0900000280BD10D4B1B78082B0ED8591C0B4AEE
:10A0A00011700B489B001C52C01810BD094B0A4A86
:10A0B000CC21490009480A4CA0470A4B064A9A217C
:10A0C000FF310648064CA047F99F0000B00300206E
:10A0D0008C03002030690100806A0100A46901003E
:10A0E000C94F01004C69010010B50B4B984700287F
:10A0F0000BD00A4B19780139C9B219708900084B85
:10A1000059180422074B984710BD074B074AD32123
:10A1100049000748074CA047F99F0000B003002002
:10A120008C0300208B5001006C690100906A0100D3
:10A13000A4690100C94F010010B5054B98470028DC
:10A1400000D010BD034B1878034B9847F9E7C04681
:10A15000019E00000D000020919D000010B5084CEC
:10A160002078084B98472078802292010021064BE6
:10A170009847002803D080225200044B1A8010BD5B
:10A18000B8030020919D0000E59D0000BA03002067
:10A19000F0B583B001900D001600074F387813001A
:10A1A0000A000199054CA047387833002A0001992C
:10A1B000034CA04703B0F0BDB8030020299C000069
:10A1C000F59D000010B586B001AC4123A370133398
:10A1D000E370013B2371053B63712833A371443B5A
:10A1E000E3710390C0430490084B1B882382084A04
:10A1F00010216B46981D074B9847208012222100A2
:10A200000020054B984706B010BDC046B2030020A1
:10A21000FFFF0000599E000091A10000F8B5040066
:10A220000D00214A1388CB189BB21380FF2B2ED927
:10A230001E4B1A88801880256D00AA1A1C491D4BD8
:10A2400098471D4B18882A0021001C4B9847051E73
:10A2500027D0002180204000194B9847134B1888C5
:10A2600000221A80104B1E88013EFF3EB6B21E80AF
:10A27000002E16D080214900091A89B20C4B5918BA
:10A28000320020000B4B9847084B1E8009E0074E18
:10A290003788C0190A000649064B9847ED193580E2
:10A2A00001252800F8BDC0466C02002040020020B5
:10A2B000700200208B500100BA03002091A1000021
:10A2C0001D9E0000F0B5DE4657464E464546E0B5B9
:10A2D000D5B07B487B4B984700237B4A13807B4A51
:10A2E00013807B4A13807B4A13807B4B1B781F00B3
:10A2F000039312230FAA00213800784CA047119B2A
:10A300000993754C2500260008E03370724B1B78CA
:10A31000BB420BD0724B984700280DD123780133F4
:10A32000DBB2012BF1D900232B70EFE76D4B6E4AA6
:10A330006E496F486F4CA0476F4B1B78002B6AD05B
:10A34000002306930133FF3399466A46D3826B4B51
:10A3500010330893069B07939F00694B9C46674404
:10A360007B881D00049310230BAA290003988046C4
:10A370005A4CA0470BAE0023B3803489F48073811C
:10A38000B3811034A4B23200290040465D4B984797
:10A3900030805D4A0E210BA85C4B9847F081574DE9
:10A3A0004A46FF2128005A4B98472B0007CE07C387
:10A3B00032681A60574B1B88454A12889B187B806D
:10A3C0004C4504D9002610234C4A904668E00BAB5C
:10A3D0001B89089A00920022049903984E4EB047B8
:10A3E000002863D0079B9D00454B5D19494B1B8896
:10A3F000374A12889B186B80210014A8474B984756
:10A40000002853D0069B0133DBB21A0006933A4B67
:10A410001B7893429ED82F4B1A88002A06D03D4BBA
:10A42000188814A93E4B9847041E40D0294B188821
:10A4300000213C4B9847374B1A883B4B1A800998B0
:10A4400001383A4B9847041E31D002210020354B89
:10A450009847374B6A46127B1A70364D2800194BC5
:10A4600098472800344B984721E0ADB2EF1ABAB2B2
:10A470009346434400931300320004990398264FF7
:10A48000B847002812D0290014A8244B9847002868
:10A490000CD0641BA4B25E44B6B20023002CB1D031
:10A4A000251C4C45E1D96A46D58ADEE70024200008
:10A4B00055B03CBC90469946A246AB46F0BDC0465E
:10A4C00058020020E1C80000840300208603002019
:10A4D000400200206C020020B8030020B19B000065
:10A4E0005DA1000028690100AC6A0100D5030000ED
:10A4F000A4690100C94F0100B003002070020020D0
:10A500008C030020519F0000FFFF0000599E0000B7
:10A510009D500100BA030020999E00001DA200007A
:10A5200091A100001D9E0000B2030020C5A1000003
:10A530000D000020700300204DC9000010B5074B2E
:10A540009847002800D010BD054B9847054B064A98
:10A550002C21FF310548064CA047C046019E000053
:10A56000C5A2000028690100586A0100A469010021
:10A57000C94F010010B5124B1A8880239B019B1A0A
:10A580009BB2834203D30F4A93420AD910BD0E4BAC
:10A5900098470028FAD10D4B0D4A0E490E480F4C32
:10A5A000A0470F480F4B98470028EFD10C4B0E4A9D
:10A5B0001A610E4A5A609A6000221A73E6E7C04692
:10A5C000BA0300200F080000C5A20000286901009E
:10A5D000BC6A01004E040000A4690100C94F0100DB
:10A5E0005802002021C900003DA5000010270000EE
:10A5F000F0B5DE4657464E464546E0B58BB0774B44
:10A6000098470523002807D018000BB03CBC9046A3
:10A610009946A246AB46F0BD714B1888002846D13A
:10A62000704B1B88002B00D1D0E06E4B18886E4B0E
:10A6300098478346002800D1CAE08278C3781B027D
:10A64000134319000393694B1878102306AA684C2A
:10A65000A047634B1A88002A2ED0664B1B880593AF
:10A6600006AB1B8906A90A81191C934200D9111C4B
:10A670008BB206AA002191801089D08051819181EE
:10A680001C001034A4B25C4961CA61C112680A603E
:10A6900080225200944239D9002610238022520091
:10A6A000914669464A82514A92461A0088E0103023
:10A6B00080B2524B9847B8E706AB1889103080B289
:10A6C0004E4B9847474B1888474B9847834600287E
:10A6D00015D08278C3781B0213431900039306AC8C
:10A6E000424B187810232200414DA847414B1B884C
:10A6F000059323893A4A1288002ABAD0B2E7404B20
:10A70000404A9121C9004048404CA047374A107840
:10A71000394A10320092002203993D4CA047012390
:10A72000002800D170E7344906AB0A00180070C851
:10A7300070C200681060DA88103292B22D4B18880F
:10A74000344B98470023002800D15DE706ABD8883A
:10A75000103080B20221304B98470023214A1380E9
:10A760001F4A13805B46059999700B0A5A46D370AD
:10A77000002349E7ADB2AF1ABBB2190053461878AF
:10A780001D4B9B18009302910B0032000399204F40
:10A79000B84700281ED0174B18882A0016491D4BB1
:10A7A0009847002818D0022128001B4B9847641BAB
:10A7B000A4B202998C466644B6B20022002CCCD0DA
:10A7C000251C4C45D6D96B465D8AD3E700231BE791
:10A7D000002319E7012317E7002315E7019E000076
:10A7E0008603002084030020F99F0000B8030020A6
:10A7F000B19B0000BA0300207002002075A5000084
:10A8000018690100D46A0100A4690100C94F010060
:10A81000999E000091A100001D9E000010B5014B03
:10A82000984710BDF1A50000F0B5DE4657464E46EC
:10A830004546E0B583B004008A46464D802252006A
:10A84000FF212800444B9847444EA379E17909023F
:10A85000194332005046424FB8472070000A6070DA
:10A8600032000E212000B847A073000AE0731022C6
:10A87000210028003B4B9847A379E27912021A4342
:10A8800015001035ADB25346002B12D080235B006B
:10A890009D4209D90026102780235B009B466A460B
:10A8A000D3802C4B994645E051462A4810302D4B19
:10A8B0009847A379E27912021A43103280235B0091
:10A8C0009A4200DD1A0092B2274B18882149274B83
:10A8D00098478046002833D0A379E07900021843D6
:10A8E000103080B20221224B9847404603B03CBC56
:10A8F00090469946A246AB46F0BDA4B24B46D81945
:10A90000E21B53469919174B9847174B188822009A
:10A910004946164B984780460028E6D00221200081
:10A92000134B98472D1BADB2E41B3619B6B2002766
:10A93000002DDAD02C1C5D45DFD96B46DC88DCE7C6
:10A94000A379E07900021843103080B20221084B4D
:10A950009847CAE7700200209D500100FFFF0000E9
:10A96000599E00008B500100BA03002091A1000005
:10A970001D9E0000F0B5CE46474680B591B000223E
:10A98000B34B1A70002401235B429946FF27B14E56
:10A9900012230BAA00212000B0470D9D0E9B0193AE
:10A9A0006B4001331DD00134E4B2022CF0D1FF2FF3
:10A9B00057D0A94B1F704346012B00D17BE0434683
:10A9C000022B6AD180225200A44B1A80122306AABD
:10A9D000002138009F4CA047A04DA14B98462E0067
:10A9E0000FE102AB26229B181B78412BDBD102AB77
:10A9F00001329B181B78542BD5D102AB01329B1826
:10AA00001B78532BCFD102AB01329B181B784E2BF6
:10AA1000C9D102AB01329B181B78762BC3D102AB94
:10AA200001329B181B78312B06D102AB9B8C002B7B
:10AA3000B9D1012398460FE0322BB4D1894A1021B5
:10AA4000262002AB9C466044874B984702AB9B8C08
:10AA50008342A8D1022398464D45A4D2A946270097
:10AA6000A1E700227C4B1A70804C814E814D06E09C
:10AA7000794A13780133DBB21370012B15D8A04744
:10AA80000028F5D001235B42338002204042A847D2
:10AA90000028EDD000226E4B1A700122764B1A70FE
:10AAA00011B00CBC90469946F0BD744B744A754980
:10AAB0007548764CA0471022684B1A801021664ECC
:10AAC000644D694F72E006AB1B88002B07D006ABC4
:10AAD000D888103080B20121614B984761E006AB05
:10AAE0005C8820006A4B9847002810D05B4B1A788E
:10AAF00082705B78C37006AB1B89002B0BD006AB52
:10AB0000D888103080B20121554B984749E0200089
:10AB1000604B9847EAE720005F4B9847EFE74F4BC1
:10AB200019884D4B187802AA5C4B984702AB1B88DA
:10AB3000834207D002ABD888103080B22100484B46
:10AB400098475EE002AB5F883800514B9847002879
:10AB500010D0424B1A7882705B78C37002AB1B89AD
:10AB6000002B0BD002ABD888103080B221003C4BB8
:10AB7000984746E03800474B9847EAE73800464B8D
:10AB80009847EFE706ABDC89364A0C21122002AB6E
:10AB90009C466044B847844295D001211020304B38
:10ABA00098472E4B19883E4B994212D806AC307804
:10ABB00010232200A8472378FF2BE3D106AB1F21E7
:10ABC00002AA944661445A78FF2ADBD101338B42B2
:10ABD000F9D1344B9847002800D05EE7274B324A22
:10ABE00032492948294CA04702ABDF891D4A0E2172
:10ABF00018001D4B9847874291D021001020184B18
:10AC000098472B88264A934200D946E706AA128A1B
:10AC100014498A4202D000249A4203D8022100201B
:10AC2000C047022431880C4B1878102302AA094F20
:10AC3000B84702AB1B78FF2BD6D102AB0F219C4645
:10AC400061445A78FF2ACFD101338B42F9D124E7EE
:10AC5000B0030020B19B0000B8030020BA0300201D
:10AC60001D9E0000FFFF0000599E00005DA1000036
:10AC7000B2030020C5A1000088030020286901005C
:10AC8000E06A01002B050000A4690100C94F010022
:10AC9000F99F000089A00000E9A00000519F00007A
:10ACA000FF1F0000C5A20000A06A010036030000DB
:10ACB00010B5084B1B78002B08D0074B074A1A61C8
:10ACC000074A5A609A6000221A7310BD054B9847D4
:10ACD000F3E7C046880300207003002039A100007C
:10ACE000581B000075A90000F0B5CE46474680B558
:10ACF00087B00400019115001F0000280CD0002B24
:10AD00000AD0354B9847052300280BD0180007B010
:10AD10000CBC90469946F0BD304B314A314932481F
:10AD2000324CA0472800103080B2314B98472000A9
:10AD3000304B9847060003230028E7D08378C47877
:10AD400024021C43A0462C4B1878102302AA210091
:10AD50002A4CA04702AB1989019B5A1904238A4245
:10AD6000D4D802AB6A4692889A80DD8042465A81E6
:10AD70008D422CD002AB9B89013302AA9381204BD8
:10AD80001C88390002A81F4B984701230028BDD01A
:10AD9000B470240AF47002AB9A890023642AB5D9EE
:10ADA00002AB5A88184B1A800022184B1A80184898
:10ADB000184B984700230028A8D1154B164A1A6152
:10ADC000164A5A609A6000221A7300239EE70023F5
:10ADD00002AA9381D3E7C046019E0000386A0100B1
:10ADE000046B010096050000A4690100C94F010031
:10ADF00075A50000F99F0000B8030020B19B00007A
:10AE0000BA03002029A80000840300208603002044
:10AE10004402002021C900001DA80000B80B00005A
:10AE2000F0B583B00C0015001E00002809D0002BDF
:10AE300007D0104B98470323002808D1180003B00F
:10AE4000F0BD0D4B0D4A0E490E480F4CA04762193C
:10AE50000E4901338A42F1D80D4B1F7800962B0022
:10AE60002200010038000B4CA047434243419B00A5
:10AE7000E4E7C0466DA00000386A0100146B0100D1
:10AE8000EE050000A4690100C94F0100FFFF0000AA
:10AE9000B8030020999E000010B584B0002805D0AA
:10AEA0000A4B9847011E07D104B010BD084B094A50
:10AEB00009490A480A4CA0470A4B187810236A46E9
:10AEC000094CA0476B461889EEE7C0466DA000000C
:10AED0002C6A0100246B01000B060000A46901002C
:10AEE000C94F0100B8030020B19B0000F0B585B048
:10AEF00004000E001500431E9BB22E4A93421ED83A
:10AF000080231B0199421AD82B4B984700281DD04B
:10AF100020002A4B9847864207D0294B1C80294B9A
:10AF20001E80294B9847031E15D1002D40D02B00C1
:10AF3000320000212000254CA04703000BE0244BE9
:10AF4000244AAA21C9002448244CA047244B9847EE
:10AF50000523002802D0180005B0F0BD30001030E5
:10AF600080B2204B9847204B1B78082B19D81F4BD9
:10AF70001F886B465C8000236A469380D6801681CA
:10AF80005381938129006846194B98470123002873
:10AF9000E1D02000174B984787703F0AC770022303
:10AFA000D9E7154B0B4AAF21C9000B480B4CA04702
:10AFB0000023D0E7FEEF00006DA0000099AE000076
:10AFC0008403002086030020F1A5000021AE0000CC
:10AFD000EC690100F06A0100A4690100C94F010099
:10AFE000019E000075A50000B0030020BA030020F8
:10AFF00029A8000089A000004C690100F8B5CE46E0
:10B00000474680B504001E4B98470523002804D00E
:10B0100018000CBC90469946F8BD002C05D0194C80
:10B02000A0470120A0470023F2E7174B1E78002E0F
:10B0300024D0013EF6B20136B60000240025134BA1
:10B040009846134F134B994602E00434A64207D0AA
:10B050004346E05AB842F8D0C8470135EDB2F4E7AC
:10B060000023002DD4D00C4B984700230028CFD1CB
:10B070000A4B0B4A0B490C480C4CA0470023C7E76E
:10B08000019E0000919D0000B00300208C03002071
:10B09000FF0F0000E9A00000C5A200002869010020
:10B0A0003C6B01006B060000A4690100C94F010060
:10B0B00010B5034B9847431E9841C0B210BDC0461F
:10B0C0006DA00000F0B5D646474680B587B00F00AA
:10B0D000244B984212D043041CD4C308CF18072332
:10B0E0001840063B83403A7813433B700123019399
:10B0F000019807B00CBC90469A46F0BD0222FF2191
:10B100003800194B98473B78012293433B70012349
:10B110000193EDE704A9154B984701900028E7D06B
:10B1200004AB9B889846002BE2D0002402AB9D1D07
:10B130000F4B9A4607266100049B9C4661440222FD
:10B140002800D0472988CA08BA18314001238B400B
:10B1500011780B4313700134E4B2A3B24345EAD330
:10B16000C6E7C046024000009D500100F1B8000053
:10B170008B500100F0B589B007A900230B802B4B41
:10B18000984701900026002848D141E0284B294AE1
:10B19000AB2149002848294CA047294B254A682162
:10B1A000FF312548254CA04701370135ADB2082FA6
:10B1B00031D007ABF35CFB40DB07F5D503A92800D2
:10B1C000204B9847002821D003AB5B88002BDDD0B3
:10B1D000049B002BDAD0059B002B00D09847280059
:10B1E000194B9847040003AB049A59882800174B61
:10B1F0009847022816D00028CFD103AB5A8804996B
:10B2000023002800124CA0470028CDD10023019331
:10B21000019809B0F0BD0136022EF9D0F500ADB2AB
:10B220000027C6E700230193F2E7C046C5B000003F
:10B23000506B0100486C01008C6B0100C94F01008C
:10B24000D86B0100B1B5000099AE0000EDAE000072
:10B2500011B6000010B50549054B9847041E01D1F1
:10B26000200010BD0020034B9847F9E7C0030020E1
:10B27000C5B00000F5B4000010B5034B9847434239
:10B280005841C0B210BDC046FDAF0000F0B5DE466B
:10B2900057464E464546E0B589B0514B18780130C7
:10B2A000C0B2504B1B78013307221340984601234C
:10B2B000424693409A4602239C4601244A4B9B46B1
:10B2C0004346013302930725674635E04F46012286
:10B2D00001998A4097434449039C0F55404A107096
:10B2E000404A1370C000C4182000404B9847002803
:10B2F0003AD104A920003E4B984700284ED0069B27
:10B30000002B00D09847059A04AB59882000394B90
:10B310009847FD23184241D0374B384AEB21384833
:10B32000384CA0474F4643460193D0E70130C0B2A6
:10B33000013FFFB2002FD5D0204003905B461B5C3D
:10B3400099461E0053463342ECD1029B2A002B4003
:10B3500001933100D9400C42B8D10133DBB2013A3C
:10B36000D2B2002AF3D1E1E704A92000204B98478C
:10B37000002813D004AB5B88002B1ED0059B002B4C
:10B380001BD0069B002B00D09847059B04AA52882F
:10B39000002120001C4CA047002815D1124B1B781F
:10B3A000002B18D1104B5B78002B14D109B03CBC9A
:10B3B00090469946A246AB46F0BD144B144A9A21DA
:10B3C00049000F480F4CA047124B114AA1214900D8
:10B3D0000B480C4CA04700200F4B9847E6E7C046AF
:10B3E000BC030020C2030020C0030020B1B0000055
:10B3F000B1B50000EDAE0000D86B0100206C01007B
:10B400008C6B0100C94F0100E9AC0000506B0100DA
:10B41000386C0100586C0100F5B40000F0B585B03F
:10B4200003A900230B80114B9847019000270028A7
:10B4300016D1019805B0F0BD01350134A4B2082D34
:10B440000BD003ABDB5DEB401E42F5D02000084B78
:10B4500098470028F0D10190EBE70137022FE8D0A0
:10B46000FC00A4B200250126EBE7C046C5B00000F1
:10B47000B1B0000010B5024B9847024B984710BD81
:10B48000619B0000B1AC000070B584B00124124E85
:10B49000124D09E0124B134A50311348134CA04788
:10B4A0000134A4B2092C14D069462000B04700280A
:10B4B000F6D06B4659880029ECD000222000A8471E
:10B4C000FD231842ECD00A4B064A5B210648074C84
:10B4D000A04704B070BDC046B1B50000EDAE00009D
:10B4E000746C0100CC6C0100886C0100C94F010034
:10B4F000D86B0100034A0123834011780B4313707A
:10B500007047C046C303002070B50D4B1D78002D59
:10B5100012D02800EB0710D4002301240133DBB242
:10B5200019000200DA401442F8D001238B405D403C
:10B53000034B1D70034B984770BD0021F5E7C046D3
:10B54000C30300208DB2000010B5914200D810BD99
:10B55000891A80180A000021014B9847F7E7C04676
:10B560009D50010070B50E4C08220E4920000E4B74
:10B57000984721000E3102200C4DA84721000C31C4
:10B580000120A847210010310020A84721000831E0
:10B590000520A847210011310620A84770BDC046EC
:10B5A000881E0020580000208B50010059E4000044
:10B5B000F0B587B0019102AA114B110070CB70C198
:10B5C0001B680B601388834212D00E4B02AA0E49EF
:10B5D0008C4611001C00E0CCE0C124680C6011888E
:10B5E000814205D010336345F3D1002007B0F0BD90
:10B5F000102202A90198054B98470120F6E7C046A2
:10B600000061000010610000906100008B5001009B
:10B61000F0B5CE46474680B585B007000E00150050
:10B620001C009A4217D069469B4B9847002800D1CE
:10B630002CE16B461B7BDB0706D5082F00D91FE1E9
:10B64000BF00964BDB599F46954B964ABC21FF3174
:10B650009548964CA047072800D911E18700944BE4
:10B66000DB599F463378FF2B00D0EFE0731C31008D
:10B6700018311A78FF2A00D0E8E001338B42F8D164
:10B68000FEE02200290030008A4B9847A54200D8EE
:10B69000F6E03719884B98460822FF213800C0474A
:10B6A00008370834A4B2A542F6D833002A00002196
:10B6B0000320824CA047002800D1E1E0804B814A62
:10B6C000C4217948794CA047A54200D1D8E0220096
:10B6D00029003000774B9847A54200D8D0E03719B1
:10B6E000754B9946002398460822FF213800C84729
:10B6F0004346BB600C370C34A4B2A542F4D83300E7
:10B700002A00002104206D4CA047002800D1B7E09A
:10B710006B4B6D4AE5216448644CA047A54200D1BB
:10B72000AEE0220029003000624B9847A54200D8C5
:10B73000A6E03719604B9946002398460822FF215E
:10B740003800C8474346BB6010371034A4B2A54246
:10B75000F4D833002A0000210520584CA0470028C7
:10B7600000D18DE0564B594A842149004E484F4C38
:10B77000A047A54200D183E02200290030004D4BB4
:10B780009847A5427CD937194B4B994600239846D8
:10B790000822FF213800C8474346FB60BB601437CE
:10B7A0001434A4B2A542F3D833002A0000210620A5
:10B7B000424CA047002863D0414B454A952149009F
:10B7C00039483A4CA047A5425AD0220029003000FF
:10B7D000384B9847A54253D93319FF2119700022DD
:10B7E0005A7002330234A4B2A542F7D833002A00BB
:10B7F00000210720314CA047002841D0304B354A6A
:10B80000A62149002848294CA047220029003000E1
:10B81000284B9847A54233D93319291B013989B2DE
:10B820000131591800221A7001338B42FAD13300CA
:10B830002A0000210820214CA047002820D0204BBE
:10B84000254A6E21FF311848184CA04708223100C4
:10B850002248234B984731000E310220214CA0474B
:10B8600031000C310120A047310010310020A047E9
:10B870001D4D29000520A047290009310620A047B9
:10B88000012005B00CBC90469946F0BD082FF7D8B2
:10B89000BF00164BDB599F46B1B50000DC6C0100C0
:10B8A000D46D0100C46D0100006E0100C94F01009C
:10B8B000006D010049B500009D500100E9AC000099
:10B8C000586C0100446D0100586D01006C6D010061
:10B8D000846D0100986D0100B06D010058000020DA
:10B8E0008B500100C9E20000901E0020206D010075
:10B8F00070B582B00C006B46084A694660CA60C1E8
:10B90000DA880023824202D0180002B070BD0822FB
:10B9100069462000024B98470123F5E7806100004B
:10B920008B50010010B50278084B1A7042785A709B
:10B930000A78074C22704A7862701888054B98473D
:10B940002088054B9847012010BDC046A41E00204A
:10B95000BC1E002069C2000049C2000010B50028CA
:10B9600009D10B781A2B07D8044A13701800044B1E
:10B970009847012000E0002010BDC046BE1E0020F8
:10B98000C1C2000030B583B06C46009001910F4BEE
:10B9900098470F4D2B0006CC06C30E4B984704006A
:10B9A00001200D4B98470D4B1C7068680C4B984755
:10B9B0000C4B00221A707F215A547F315A547E2139
:10B9C000FF315A54012003B030BDC046B9C1000058
:10B9D000AC1E002039C3000035C20000A01E0020AC
:10B9E00019C40000C01E0020F0B5DE4657464E4682
:10B9F0004546E0B5A5B001900E000291111C14005F
:10BA0000240A039200932EAA15782FAA13789B4636
:10BA1000C7B2B806C30F9946C9B2E2B27B0700D5D8
:10BA2000012103233B40012B3BD05C425C41E0B24F
:10BA3000824601AC64897B480088A04234D000244F
:10BA4000072084468846614608314046002800D0D9
:10BA50000639002A37D00231C9B28C462421394038
:10BA6000202934D0032B36D004A9AC4463460B7094
:10BA700053464B7001A94B465B019C460878202336
:10BA800098436346184308708446C1438B072AD005
:10BA90004346002B49D0002A2FD0882004A9887063
:10BAA0002EE003208246C4E75F48844207D040244A
:10BAB0005046204382463F3C05208446C2E700248E
:10BAC00007208446BEE70831C9B28C46C6E7504617
:10BAD00008438246C6E701220023994600249A467D
:10BAE00007339C46C0E704A9802088704F4E307809
