:1000000088480020E9830000E5830000E5830000C4
:1000100000000000000000000000000000000000E0
:10002000000000000000000000000000E583000068
:100030000000000000000000E5830000E5830000F0
:10004000E5830000E5830000B56A0000A9630000B5
:10005000E5830000E5830000E5830000E583000000
:10006000E5730000F57300000574000015740000CE
:100070002574000035740000E5830000E58300006E
:10008000E5830000CD7F0000DD7F00000000000060
:1000900000000000ED7F0000E5830000E583000024
:1000A00000000000E58300000000000000000000E8
:1000B0000000000000000000000000000000000040
:1000C0000000000000000000000000000000000030
:1000D0000000000000000000000000000000000020
:1000E0000000000000000000000000000000000010
:10610000020008006C2800200000000000000000D1
:1061100001001800581D0020D5AB00000000000051
:10612000484901000200014010B5064C2378002BBD
:1061300007D1054B002B02D0044800E000BF01232B
:10614000237010BDA800002000000000C84B010013
:10615000084B10B5002B03D00749084800E000BFEA
:1061600007480368002B00D110BD064B002BFBD065
:106170009847F9E700000000AC000020C84B010080
:10618000C84B01000000000070B50020084B984784
:106190000500084CFA218900A047074B1860074901
:1061A0002800A047064B18600522064B1A6070BDF8
:1061B000FD7C0000650501000000002040420F004A
:1061C0000400002010E000E030B5084B1C68084ACD
:1061D000002580214902013807D3002CFBD05460F0
:1061E000956013680B42FCD0F5E730BD0400002039
:1061F00010E000E030B5084B1C68084A00258021FB
:106200004902013807D3002CFBD054609560136815
:106210000B42FCD0F5E730BD0000002010E000E0AC
:106220000C4B1B68002B06D1EFF31083002B07D01B
:106230000022094B1A70074A136801331360704734
:1062400072B6BFF35F8F0022044B1A700132024B0B
:106250001A70F0E7C4000020C800002008000020E9
:10626000084B1A68013A1A601B68002B09D1064BCB
:106270001B78002B05D00122044B1A70BFF35F8FEF
:1062800062B67047C4000020C8000020080000204B
:10629000F0B5CE46474680B583B001AC01266670A6
:1062A0000027A7702670210013202D4DA8472D4BE5
:1062B000994680231B034A469361267021001220D1
:1062C000A8478023DB0298464B4642469A612770D6
:1062D000667021001C20A8476670A77026702100F8
:1062E0005220A84721003E20A84721003F20A84770
:1062F00021002F20A84721001420A8471A4B42460E
:106300009A611A4B8022D2059A61802212069A6104
:106310008022120290469A6180235B034A46936171
:10632000277021005320A847114AD36941460B43E7
:10633000D36104220F4B1A806B469E70DF700523D9
:106340006A4613705670694609200B4CA04769468F
:106350000C20A04703B00CBC90469946F0BDC04647
:1063600059680000002800400029004080280040B3
:1063700000040040003C0042D57E00001723002AA4
:1063800001D0180070478B00064A9B58002B03D0A1
:10639000834205D01D23F4E7890088500023F0E7ED
:1063A0000023EEE7181C002070B50022104B1A7075
:1063B000002310491F25104E0D4C0AE00D4908E03E
:1063C00023780133DBB223700F2B10D800211F2B51
:1063D000F4D9280018400122824048691042EFD0C9
:1063E0004A619B009B59002BEAD09847E8E770BDB3
:1063F000141C002000240040181C0020064A1378BA
:1064000002210B431370012053681942FCD15368D9
:106410001842F9D17047C04600240040064A13785C
:1064200002218B431370012053681942FCD1536839
:106430001842F9D17047C0460024004010B5124AF6
:10644000516980239B000B435361104A137801214B
:106450000B4313700131012053681942FCD153687A
:106460001842F9D1094A137810210B431370084BD5
:1064700019004031002204C38B42FCD10822054B95
:106480001A60054B984710BD0004004000240040EE
:10649000181C002000E100E0FD6300000023036001
:1064A00043600122027283720132C27243727047EA
:1064B000F0B583B005000C001C4B984701A90023E0
:1064C0004B70CB7023790B70237A8B702078184B2C
:1064D000984700211F2D00D8164907222A40920014
:1064E000E77AA37A002B01D008231F43EB089B0017
:1064F000CB18D8690F269640B04397403A00024324
:10650000DA61637A002B0BD18A690123AB40DB434C
:106510001B041B0C13408B61074B984703B0F0BD65
:106520008A690123AB4013438B61F5E71D640000CA
:10653000D57E000000240040FD63000010B51E4A17
:10654000936904210B4393611C4B2022FF321A8371
:106550001A7D0523D20701D4180010BD03781B0251
:10656000C022920013404178C901FF220A40134320
:10657000817849001E220A401343C2789204802188
:10658000C9020A40134302791204C02189020A4059
:1065900013430A4A536093685B035B0F084908245E
:1065A0009C400C8093684B8043780B71138BDB0508
:1065B000DB0F1B01D0E7C046000400400040004153
:1065C000CC00002030B50400254A1088538843438E
:1065D0008B420BD280229201224BCB18934205D9D9
:1065E000214A1820214BCB1893420ED8204B5D68CE
:1065F0008022D2022A435A602022FF321A831B7D56
:10660000DB0703D41A4B5D60052030BD452C22D832
:10661000A300184AD3589F46154B1B8BDB0503D5A7
:10662000134B5D601020F0E789084900104BD961D9
:1066300003E0890849000E4BD961A52000020443FC
:106640000B4B1C80190001220B7D1342FCD0084B20
:106650005D600020D9E7064B5D601720D5E7C04696
:10666000CC00002000C07FFFFF1F00000000C0FF23
:106670000040004148410100F8B52F4B1C885B8861
:106680006343834207D22D4E18252D4BC318B342C6
:1066900006D8012600E00026631E1825184201D006
:1066A0002800F8BD013D9442FAD3264B1B7D123DD4
:1066B000DB07F5D5244C234B1C801D0001242B7DCA
:1066C0002342FCD02024FF341E4B1C83002A2CD0F4
:1066D000012305009D430023541EA44609E0CF1862
:1066E0007F783F023C432C8002339BB202359A42B2
:1066F00004D9CC5C6345F2DBA4B2F4E70E4B1B7902
:106700000025002BCCD13F2ACAD8002E06D100226A
:10671000010004200D4B98470500C1E7002201004D
:106720001C200A4B98470500BAE7034B1B7900254C
:10673000002BEAD0B4E7C046CC000020FF1F0000C9
:106740000000C0FF0040004144A5FFFFC5650000F8
:1067500070B51B4B1C885B886343834205D2194E7E
:106760001825194BC318B34203D8631E18251842C5
:1067700001D0280070BD013D9442FAD3134B1B7D1C
:10678000123DDB07F5D52024FF34104B1C83002A73
:1067900014D0012398430023561E04E002339BB219
:1067A00002309A4208D90488A4B2CC54B342F5DA34
:1067B000CD18240A6C70F1E70025DAE70025D8E748
:1067C000CC000020FF1F00000000C0FF004000417F
:1067D00010B51B4A138852885A43824207D2194C7B
:1067E000182219494118A14207D8012100E00021CF
:1067F0009B00013B1822184201D0100010BD134B22
:106800001B7D133ADB07F8D5104B2022FF321A8389
:1068100080084000D86100290FD10D4A0B4B1A8027
:10682000190001220B7D1342FCD0084B1A8B1C204F
:106830000240501E82419200DFE7064AEEE7C04662
:10684000CC000020FF1F00000000C0FF00400041FE
:1068500002A500001AA5000000B583B001AB80229C
:106860001A700A785A704A789A708A78DA70190021
:10687000014B984703B000BDD57E0000036818693E
:10688000431E9841C0B2704770B5040006680422E8
:10689000084B1A60084D2000A8470028FBD1338818
:1068A000022213433380044D2000A8470028FBD167
:1068B00070BDC04600E100E07D68000070B50400D6
:1068C0000668042180230A4AD1500A4D2000A847B7
:1068D0000028FBD1084B3381B381338802229343D4
:1068E0003380044D2000A8470028FBD170BDC0466E
:1068F00000E100E07D680000FF81FFFF70B504004B
:1069000006680A4B98470023A386E386084D2000BB
:10691000A8470028FBD13388012213433380044D5C
:106920002000A8470028FBD170BDC046BD6800000C
:106930007D680000F0B583B0040001911500066881
:10694000134F2000B8470028FBD12379002B0ED02D
:10695000012B19D11730012D17D80835AD00019B37
:10696000AB510B4D2000A8470028FBD10DE01720AC
:10697000022D0AD8074B019A9A4206D86B469B888B
:1069800010356D00AB53ECE71A2003B0F0BDC046E4
:106990007D680000FFFF000070B504001500016075
:1069A0001F4A516980235B000B43536100221D4B3A
:1069B0001A611D4B9847AB7823711C4B1C602268F1
:1069C0002B79DB0329880B439BB21380AB78002B18
:1069D00013D01720012B0FD113889BB21380EB78B3
:1069E000002B03D0138880210B431380A968002259
:1069F00020000F4B9847002070BD138804210B43E3
:106A00001380EB781720002BF6D10022A968200014
:106A1000074EB047E96801222000B0470020EBE7AD
:106A20000004004000100040FD680000581C0020D9
:106A3000356900000A2A09D0072A07D90379002BF3
:106A400010D0012B12D11633092A09D8931C9B00B0
:106A50001950838E012191400B439BB28386002302
:106A60001800704717230A2AFAD8EFE71723F7E729
:106A700010B502680A2911D0072912D980235B00BA
:106A80000C00083CA340C024A40023405381C38EC3
:106A900001228A4013439BB2C38610BD044B53812D
:106AA000F5E701248C40FF2323405381EFE7C046E4
:106AB0000080FFFFF8B5DE4657464E464546E0B536
:106AC0002B4B1B689A461E68DB8E5246928E1A40EC
:106AD0009046B289738913401AB2002A08DBFF2757
:106AE0001F402AD0002401239946FE339B4614E020
:106AF00043465B0507D41F4BB3813CBC9046994687
:106B0000A246AB46F8BD53461B6B9847F3E75B467E
:106B10001D40B5810134082CEFD023004D46A5401F
:106B20002F42F4D04246224149461142EFD002336F
:106B30009B0052469B589847E9E7DA050AD5434639
:106B4000DB0503D480235B00B381D6E753469B6A01
:106B50009847F7E79B05D0D543469B0503D4802390
:106B60009B00B381C9E75346DB6A9847F7E7C04605
:106B7000581C00200080FFFF01680722CB691A42E1
:106B8000FCD17047F0B5D6464F464646C0B58AB0F0
:106B900007000E001400396008009C4B9847052838
:106BA00000D12BE105001235994AD16901238340B8
:106BB0000B43D36109A9237B0B70EDB22800954BE1
:106BC00098472800944B9847207B0021934B984787
:106BD00033681C209B0705D50AB01CBC904699461B
:106BE000A246F0BD33681738DB07F5D414233360B1
:106BF0003B6898461800854B98470500802308AAF3
:106C0000137000235370012208A98A70CB70E069C9
:106C1000266A002800D1AEE008AB1870022308AA4B
:106C20005370000CC0B211007D4B9847002E00D16C
:106C3000A6E008AB1E70022308AA5370360CF0B20F
:106C40001100774B9847A38AFB80E38A3B81237E20
:106C50008022002B04D1734B9B789B07DB0FDA015A
:106C6000A16823690B4313432422A25C002A02D0AB
:106C70008022D2051343A26A13432C22A25C002A6D
:106C800003D180229204914202D180221205134343
:106C90002D22A25C002A02D08022120413432E224D
:106CA000A25C002A02D08022D2031343424612681B
:106CB00013434246136080235B0053601235E8B2F1
:106CC000594B98470790FA239B0022685A439146F4
:106CD00063689A46554DA847009001914B4658006D
:106CE000A84702900391208EA84704900591504F29
:106CF000504A514B00980199B84702000B00049884
:106D00000599B8474D4E00224D4BB0470490059170
:106D10004846A84702000B0004980599B8470200AE
:106D20000B00484D00980199A847029A039BB04771
:106D30000022454BA847029A039B444DA847444B69
:106D40009847050080239B04A2689A421ED0030046
:106D50004020FF2D00D93FE700240020FF251D40E3
:106D6000240625430004FF231B0418400543434623
:106D7000DD60002030E700214046364B98474BE766
:106D800001214046334B9847060052E7FA26B600E9
:106D900053465E430098019902000B00274CA04720
:106DA000009001913000214B984700222A4BB847B0
:106DB00002000B0000980199244CA0470022224BAE
:106DC000204CA047224B9847041E0CD03100079856
:106DD000224B98470238001B2B00FF2D0CD8FF28B0
:106DE000BCD94020F8E67100481E079B9C466044D1
:106DF0001A4B98470138EFE74020EDE6044A136A42
:106E000002210B4313621825D4E6C046AD7300007F
:106E100000040040D97D0000697D0000ED71000094
:106E2000D57E000000200041FD7D00006D2C01009A
:106E3000D920010095D626E80B2E113E51140100F1
:106E400000002440D92501000000F03F711A010024
:106E5000052C0100397200000000084065050100A2
:106E6000F8B504000768084EB04725682000B04711
:106E700083232B752B762B68022293432B602000F3
:106E8000B04701233B60F8BD796B000003681A7EB0
:106E9000920707D502221A765B8B9B074120DB17EE
:106EA000184070475A8B520706D55968C022920283
:106EB0000A435A601820F4E70020F2E730B5026870
:106EC000002301240225117E21420BD1117E29428B
:106ED00006D101339BB201899942F4D8122002E015
:106EE000002000E0002030BD10B5046862688023F7
:106EF000DB02134363606162024B984701232376F0
:106F000010BDC046BD6E0000F0B5DE4657464E4689
:106F10004546E0B583B00600894605684C882B6875
:106F20001B01DB0F9A464B7A002B2BD16B68584A1A
:106F300013406B604B461B7A002B27D14B461B88B6
:106F40005B004A46527A92031343012213436B6259
:106F50003000504B984701905346002B03D04B46CE
:106F60005B88012B3BD06B68494A13406B60019BE7
:106F7000002B3AD0019803B03CBC90469946A246FB
:106F8000AB46F0BD897A444B9847CFE74B461B8808
:106F90005B004A46527A9203134380221202134343
:106FA0006B6230003B4B984701906B68384A134046
:106FB0006B600028DED13000384B984701900028E4
:106FC000D8D14B461B881B0A782213435B004A46E4
:106FD000527A920301210A4313436B62B8E76A684D
:106FE0008023DB0213436B60C1E730002B4B9847D3
:106FF00001900028BED1013CA4B28046284B9B469C
:1070000015E0012C20D03000264B984743465F1CEA
:10701000BFB22823EB5C4A465268414653543000C5
:107020001C4B9847013CA4B2002815D1B8465C45DA
:1070300014D06B8B9B0627D5F37A002BE3D05346F5
:10704000002BDED1002CDED16A688023DB021343E3
:107050006B60013CA4B2EAE7B8460190B37A002B1A
:1070600009D130000F4B98472823EA5C4B465B68F8
:1070700041465A547EE730000A4B98476A68C0235D
:107080009B0213436B60ECE74123019372E7C04618
:10709000FFFFFBFFBD6E0000E96E00008D6E00007B
:1070A000FFFF0000796B0000F0B5DE4657464E4604
:1070B0004546E0B583B006000F0005684C88324BAA
:1070C00098477B7A002B1DD16B68304A13406B6068
:1070D0003B7A002B1BD03B885B007A7A92031343E8
:1070E0008022120213436B623000294B98470190B3
:1070F000002813D0019803B03CBC90469946A246A4
:10710000AB46F0BDB97A3000224B9847DCE73B88AC
:107110005B007A7A920313436B62E5E730001E4B03
:107120009847031E0190E5D1A046002420339946DC
:10713000154B9B46164B9A46444515D06B8B4A46D9
:1071400013421DD03000D8477B681A5D2823EA54CB
:107150003000D047002806D16B8B01345B07EBD59C
:107160001E23019300E00190B37A002BC2D03000BF
:10717000054B98476A68C0239B0213436B60B9E7CD
:1071800041230193B6E7C046796B0000FFFFFBFF88
:10719000BD6E0000E96E00008D6E000010B5012389
:1071A0008372C372014B984710BDC046096F00003F
:1071B00010B5002383720133C372014B984710BD91
:1071C000A970000010B5490840230024814202D272
:1071D000180010BD1C00091A631C9BB28842F9D923
:1071E0004023FF2CF4D814800023F1E710B582B0BF
:1071F00004000E4B1B78002B07D0002905D10B4B48
:107200005B78834210D01D200CE001A90C70112086
:10721000074B98471120074B9847044B5C7001229D
:107220001A70002002B010BD0020FBE7D40000203F
:10723000D97D0000697D0000404B984232D00AD9C8
:107240003F4B98424ED03F4B98425BD03E4B9842CA
:1072500038D0002070478423DB0598420CD03B4B8C
:107260009842F6D1012917D000295DD0022915D006
:10727000032915D00020EDE7012907D0002951D0BE
:10728000022905D0032905D00020E3E73048E1E7D3
:107290003048DFE73048DDE73048DBE73048D9E702
:1072A0003048D7E7012907D000293FD0022905D06F
:1072B000032905D00020CDE72B48CBE72B48C9E7B1
:1072C0002B48C7E7012907D0002931D0022905D072
:1072D000032905D00020BDE72648BBE72648B9E7CB
:1072E0002648B7E7012907D0002923D0022905D075
:1072F000032905D00020ADE72148ABE72148A9E7E5
:107300002148A7E7012907D0002915D0022905D077
:10731000032905D000209DE71C489BE71C4899E7FE
:107320001C4897E71C4895E7032093E71B4891E723
:107330001B488FE71B488DE71B488BE7000800427E
:107340000010004200040043000C00420004004210
:10735000030005000300060003000700030001000E
:1073600003001E0003001F000300090003000A00C1
:1073700003000B00030011000300120003001300C0
:1073800003000D0003000E0003000F0003001700B0
:1073900003001800030019000300040003000800A4
:1073A0000300100003000C000300160030B587B086
:1073B0000B4B6A4632CB32C232CB32C2009B834285
:1073C0000BD001239A0069465258824206D00133FD
:1073D000062BF7D1002007B030BD0023D8B2FAE762
:1073E0006042010010B5024B1B680020984710BD99
:1073F000D800002010B5024B5B680120984710BDF3
:10740000D800002010B5024B9B680220984710BDA1
:10741000D800002010B5024BDB680320984710BD50
:10742000D800002010B5024B1B690420984710BDFE
:10743000D800002010B5024B5B690520984710BDAD
:10744000D8000020F0B5D6464F464646C0B58AB0B3
:1074500006000F00140031600B689B070AD40B680C
:107460000520DB0700D497E00AB01CBC9046994683
:10747000A246F0BD936A0593D36A0693136B0793F4
:10748000536B089300250AE038009A4B98470EE0AA
:107490000F231840814530D10135042D31D0E9B298
:1074A000AB0002AA0C201218D0580028ECD0431CC4
:1074B000F2D001040B0C9946000CC3B29C46002389
:1074C000020605D463465B09DB018B4A90464344C0
:1074D0001F22604602409818403000788246802083
:1074E0005146C907D6D552089B1830331878C0B218
:1074F0006346DB07CCD50009CCE7002333601C20B2
:10750000B2E711207D4B984722780025012A26D02A
:107510006368A2681343E26813432B43227C617CB7
:10752000002901D080210B43A17C002902D08021B9
:1075300089020A43E17C002902D0802189000A43A4
:10754000217D002902D0802189010A433968022067
:1075500003438B4217D0002333601C2084E704AA26
:107560000100A069664B984703001720002B00D04C
:107570007AE73B7BDBB204AA127805309A4200D04E
:1075800072E70C35C4E77B689342E4D123787371CA
:10759000237CB371002067E708005A4B9847052801
:1075A00000D19FE0030012335749CD690122824088
:1075B0002A43CA6109A92425625D0A70DBB20193DE
:1075C0001800524B98470198514B9847605D002135
:1075D000504B98472378012B19D03368984604AB59
:1075E00080221A7000225A7001219970DA70237873
:1075F000002B01D104AB9A70A36A0593E36A06934A
:10760000236B0793636B0893002705AD11E03B687C
:107610000C2213433B60E0E74046364B98470DE0B1
:1076200004A90870000CC0B23B4B98470137042FE7
:1076300007D0F9B2BB0058590028EDD0431CEFD158
:10764000F4E723787371237CB371A37CF371237DFA
:107650003372002202ABDA802378012B2AD06368D0
:10766000A2681343E2681343217C627C002A03D1A1
:107670002A4A9278920701D580221343A27C002ADD
:1076800002D0802292021143E27C002A02D08022A2
:1076900092001143227D002A02D0802292011143E0
:1076A0004246126813434246136053680B435360CB
:1076B0000020D9E63068134B98471230C0B20F4B08
:1076C0009847010002AB9A1DA0690D4B9847030033
:1076D0001720002B00D0C7E602AB06331B784246CA
:1076E0001373BCE7084A136A02210B431362182381
:1076F00060E7C0463972000000280040FD7D0000B0
:10770000C5710000AD73000000040040D97D000089
:10771000697D0000ED710000D57E00000020004171
:1077200010B544791523012C01D0180010BD047A3E
:107730000023002CF9D1002A58D04B78002B44D0DC
:1077400003681B7EDB0710D40A78D10900230029C7
:1077500004D15309DB012E498C4663441F2111409B
:1077600001228A409A610523DFE70A78D4090023C1
:10777000002C04D15309DB01254CA44663441F248B
:1077800014400122A2405A6103681A7ED20701D533
:107790008A789A62C2790023002AC6D1026804213D
:1077A000137E0B42FCD0117E00234907BDD5538BBD
:1077B0005B0701D5042353838379012B02D0936A9D
:1077C0000023B2E7936A0023AFE70A78D1090023C8
:1077D000002904D15309DB010D498C4663441F2164
:1077E000114001228A405A6100239EE70A78D1099C
:1077F0000023002904D15309DB0105498C46634469
:107800001F21114001228A409A6100238DE7C04662
:107810000028004010B5082803D880001D4B1B58D5
:107820009F46002034E01C4B186931E01B4B187D4B
:107830000007800F431C1A48584329E0164B58692B
:1078400026E0154B1B6800209B0721D51349802299
:107850005200CB681342FCD00F4B1A68242313400C
:10786000042B01D00F4813E000200F4B98470A4B20
:107870009B681B041B0C58430AE02823074AD35C6F
:1078800000209B0704D5044BD86801E0802000024B
:1078900010BDC04678420100F0000020000C0040FE
:1078A00000093D00006CDC02FD7D000070B50B4C52
:1078B000237D8578467802780321114089000C22C7
:1078C00093430B430B3A3240920140218B431343C5
:1078D000ED017F2213402B43237570BD000C004047
:1078E000F0B5CE46474680B5194B99469B6941781D
:1078F0008C4605780679C77844798078012108405C
:10790000800004229343034360460840C0000432D1
:10791000934303433800084080014027BB4303439F
:1079200030000840C0018026B343034307200540D0
:107930002D02084803402B43214009030648034019
:107940000B434A4693610CBC90469946F0BDC04635
:1079500000100040FFF8FFFFFFEFFFFF082803D8EB
:107960008000294B1B589F4617204BE0274A137D68
:1079700002210B431375002044E0254A936902213C
:107980000B43936100203DE0204A138A02210B4300
:107990001382002036E01E4A536902210B435361D3
:1079A00000202FE01B490B68022213430B60174B8A
:1079B0001A831900FE32CB681342FCD0154A916835
:1079C000124B19625268DA6100221A8319000132DF
:1079D000FF32CB681342FCD00E4B1B689BB20B4AA4
:1079E000138300200EE0094928228B5C0220034308
:1079F0008B5408003821263A435C1342FCD1002006
:107A000000E000207047C0469C420100000C00408E
:107A100000100040F0000020082832D880001A4BE7
:107A20001B589F46194A137D02218B431375002072
:107A30007047174A936902218B4393610020F7E74F
:107A4000124A138A02218B4313820020F0E7104A66
:107A5000536902218B4353610020E9E70D4B1A68FB
:107A600002218A431A601B689BB2084A13830020D4
:107A7000DEE7064928228B5C022083438B540020DA
:107A8000D6E71720D4E7C046C0420100000C0040F2
:107A900000100040F0000020F0B5CE46474680B50B
:107AA00087B080225200434B9A60FD3A424B9A6065
:107AB000424A53681E218B4353608023DB059B7829
:107AC000022B09D08023DB0501229A7101329A70C2
:107AD0001A009379002BFCD004A80125457085700D
:107AE00005710723037000244471C570344B984717
:107AF0000420344EB04701A94D604C700C724C729A
:107B000003230B700020304B984706202F4B9847DB
:107B10006B465C701D709C7068462D4B9847062024
:107B2000B04724491022CB681A42FCD001AC012690
:107B300002960025657006239946237025726572AA
:107B400021000020204B984698471A4A137D802137
:107B50000B4313751F4B98471F4FBE717E713E71CB
:107B6000666065704B4623702572657221000020A7
:107B7000C0470020194B98470020194B9847397986
:107B8000C9B2184B9847184B98420ED88023DB0592
:107B90009B78002B09D08023DB0501229A710022FB
:107BA0009A701A009379002BFCD007B00CBC904659
:107BB0009946F0BD000C0040001400400040004118
:107BC000E17800005D790000117C0000197A000066
:107BD000AD780000ED7B000000040040BD7C00009B
:107BE000FD7C000065050100001BB700064A5369D3
:107BF00040210B4353610122044B1A7019000B788A
:107C00001342FCD17047C0460004004000180040F9
:107C100070B504000D784B78002B02D08023DB0078
:107C20001D434B7A002B02D080231B011D43486863
:107C300001280FD9431E184231D102282DD9022321
:107C4000002201325B009842FBD880235B011D4378
:107C5000120415430B7A002B02D080239B011D4395
:107C60000426A6401149124A4B6813401E42FBD11C
:107C7000104B9847A4000D4B9C466444226A802315
:107C80005B001A402A4322626146094A4B6813404E
:107C90001E42FBD1084B984770BD0022D5E7000477
:107CA00080239B0018430543D4E7C04600180040DA
:107CB000FC070000216200006162000010B50400B2
:107CC0000422824009480A4943680B401A42FBD10A
:107CD000084B9847A400054B9C466444226A8023C5
:107CE0005B0013432362044B984710BD001800400B
:107CF000FC0700002162000061620000F8B504008A
:107D0000042282401248134943680B401A42FBD1B7
:107D1000114B98470E4F0834A400E0590007000F9C
:107D20000E4B98470600E559ED04ED0FE459240C7D
:107D30000B4B9847002D07D1012C07D921003000AB
:107D4000084B9847060001E00134E6403000F8BDDA
:107D500000180040FC0700002162000015780000B8
:107D6000616200006505010010B50400094B9847E9
:107D7000A000094B9C4660448022835840210B435D
:107D800083504031403A43581A42FCD0034B984745
:107D900010BDC04621620000001800406162000072
:107DA00010B50400094B9847A000094B9C4660445D
:107DB0008022835840218B4383504031403A4358BE
:107DC0001A42FCD1034B984710BDC0462162000007
:107DD000001800406162000070B504000D00054B02
:107DE00098472A780F2313402034A400024AA35056
:107DF00070BDC046A17D00000018004010B5040011
:107E0000064B98472034A400054BE4582407240F60
:107E1000044B98472000044B984710BD2162000096
:107E20000018004061620000FD7C000030B5D3788E
:107E3000002B35D11378802B29D01B0680246402B7
:107E4000234354780225AC4306D19478002C20D1EA
:107E50008024A402234341605478013C012C1CD9A6
:107E60000D042D0CA024E4052C431C4384620D0C4E
:107E7000D02424062C431C438462D478002C22D1C5
:107E80005B031CD59378012B1ED0416117E00023C2
:107E9000D7E7C024E4022343DDE70D4C2340DFE7AE
:107EA00041600C04240CA023DB05234383620C0CEB
:107EB000D0231B0623438362D378002B03D153784E
:107EC000013B012B02D930BD8161F8E78160FAE7FF
:107ED000FFFFFBFF10B50A00C1090023002904D1F0
:107EE0004309DB0105498C4663441F2420400121DE
:107EF00081401800024B984710BDC0460028004042
:107F00002D7E00007047FFFF10B5054B9847054BCD
:107F10009847054B9847054B9847054B984710BD28
:107F2000997A000091620000057F00003D64000026
:107F3000057F0000931C9B001950022A09D0032AD8
:107F40000CD0012393401A00037E134303760020D4
:107F50007047037E102213430376F8E7037E202246
:107F600013430376F3E7FFFF70B58000164BC45848
:107F700023689D7A227E637E13401D40EB0706D462
:107F8000AB070BD4EB0610D4AB0615D470BD2000A4
:107F9000A3689847012322689372F1E72000E36801
:107FA0009847022322689372ECE7200023699847E0
:107FB000102322689372E7E72000636998472368DB
:107FC00020229A72E2E7C0465C1C002010B5002017
:107FD000014B984710BDC046697F000010B50120D5
:107FE000014B984710BDC046697F000010B50220C4
:107FF000014B984710BDC046697F000030B585B081
:1080000001AA0B4B32CB32C2019B98420DD0029B8E
:10801000984208D00023039A824202D0180005B08B
:1080200030BD023302E0012300E00023DBB2F5E7BC
:108030000C430100F0B5C64600B58AB004000D003F
:1080400016000800AA4B9847804609AB1B221A70FD
:108050005A7002329A7003A9A64B0C330A0083CBE4
:1080600083C283CB83C20023A360E3602361636187
:108070002376637643469A009F4BD4502560342381
:10808000F35CA376F378082B08D023712B680520C6
:10809000DB0708D50AB004BC9046F0BD1720424665
:1080A000D207F7D4F1E7EB7A17309B07F2D42B68AD
:1080B0009B07EFD4337C002B12D1337F002B1BD1D5
:1080C00043465A0003A9531C9B0058584346DB0003
:1080D0005B58D9B2042923D88B008849CB589F46D6
:1080E00002A901238B700022CA70327E0A704B7085
:1080F000307D834B9847E0E702A901238B70002273
:10810000CA702432B21812780A704B701F33F318F9
:1081100018787B4B9847D3E77A494B6918434861F5
:10812000F378082B00D185E001A933780B7009ABF7
:1081300042469F5C3800744B98473800734B984711
:10814000F378F2791343B2881343727A002A02D08B
:10815000802252021343B27A002A02D08022920275
:108160001343F27A002A02D0802252031343327B57
:10817000002A02D080229203134371788901B278D9
:10818000D2011143194322681369002BFCD12960E5
:1081900022681369002BFCD1B3792B73717B4B1EC2
:1081A00099418900B37B002B01D001231943226838
:1081B0001369002BFCD1FF332B71002904D02268F6
:1081C0001369002BFCD16971337A6B7322681369D0
:1081D000002BFCD12379042B59D0082B74D0172005
:1081E000002B00D056E71369002BFCD1338DAB82F6
:1081F00022681369002BFCD1738DAB83226813694D
:10820000002BFCD1B38DEB83002043E73D498B6904
:108210001843886184E73B49CB691843C8617FE70D
:1082200038490B6A184308627AE7364B596A0843A3
:10823000586275E743460133022B00DD74E703AB58
:10824000D11C8900C95802329200D358DAB2042AEC
:1082500000D969E793002E4AD3589F46294A5369AB
:108260001943516160E7274A9369194391615BE7BC
:10827000244AD3691943D16156E7224A136A194344
:10828000116251E71F4B5A6A114359624CE7136957
:10829000002BFCD12833F35C2B7522681369002B6B
:1082A000FCD12933F35CEB7622681369002BFCD1F7
:1082B0002A33F35C2B7722681369002BFCD12B3314
:1082C000F35C6B770020E5E61369002BFCD1B36A01
:1082D0006B6122681369002BFCD1F36AEB612268A1
:1082E0001369002BFCD1336B2B620020D2E6C04611
:1082F000FD7F00000C4301005C1C0020E4420100F3
:10830000D57E000000040040D97D0000697D00009A
:10831000F842010002681369002BFCD11371016857
:108320000B69002BFCD18033537153795BB2002B66
:10833000FBDB02681369002BFCD10379042B05D009
:10834000082B09D00020002B03D07047107DC0B24D
:10835000FBE7908A80B2F8E75069F6E710B5046849
:108360002369002BFCD10379042B06D0082B28D0DD
:10837000002B13D01723180010BD17230129FAD89A
:10838000837E002B05D0D2B2611830310A700023F1
:10839000F1E7D2B2641822770023ECE71723012912
:1083A000E9D8837E002B05D092B2183149000A53D8
:1083B0000023E0E792B20C3149006418A280002348
:1083C000D9E717230129D6D8837E002B05D10631A2
:1083D0008900641862600023CDE70C3189000A51DE
:1083E0000023C8E7FEE7FFFF10B51A4A1A4B9A426E
:1083F00011D01A00194B9A420DD2194A03339B1A15
:108400009B0801339B000022134812498C5884506A
:1084100004329A42FAD1134A134B9A420AD2D343F6
:1084200011495B1803218B4304339B18002102C2BE
:108430009342FCD10D4AFF210D4B8B4393600D4AB3
:1084400053687F390B4353600B4B98470B4B98474E
:10845000FEE7C046C84B010000000020A400002039
:1084600004000020A80000208428002000ED00E087
:108470000000000000400041752D010091CB00007C
:10848000F0B5C64600B50C00904600280FD1002A72
:1084900011DD8F18094E0A4D306821002B6898476E
:1084A0000134BC42F8D1404604BC9046F0BD0123E3
:1084B0005B429846F7E78046F5E7C046701C00200F
:1084C000681C0020F0B5C64600B50E001500013846
:1084D000022810D8002A11D000240C4B98460C4FCB
:1084E00043461868315D3B689847002808DB013433
:1084F000A542F5D106E00124644203E0140001E046
:1085000001246442200004BC9046F0BD701C002091
:108510006C1C00200300064A1268002A04D0044A9A
:108520001068C318136070470249014A1160F6E7EA
:108530000801002088480020012040427047802325
:108540009B014B600020704701207047002070475E
:1085500000BEFEE7704701204042704770B5164BE1
:108560001A88002A23D0131C042A00D805239BB2A2
:10857000124A10788400241864005C43FA25AD0088
:108580005D432E1B0E4B984764210E4B9847FF20EE
:1085900008406400604364210B4B9847811900290F
:1085A00000D1290001228020084B984770BD80200F
:1085B000074B9847FAE7C0460A0000200C0100204C
:1085C000F13301004508010065050100E98B000059
:1085D000798C000030B587B001AC01256570A570BD
:1085E0000023E370023323710220114B98470100EE
:1085F0000822092068440F4B984711236B4434220A
:108600001A70223A5A70E5730B4B18880B4B984737
:1086100020820B4B1D700B4B1D70802323706E3B13
:10862000220000210120084CA04707B030BDC04601
:10863000A18C0000DB2D010038010020FDDD0000D1
:108640000D010020741C0020998A00000122054BB6
:108650001A700022044B1A70044B1A78044B1A70DB
:108660007047C046761C0020741C00200C000020BF
:10867000751C002070B505000C005A78022A1DD028
:10868000D1B2022906D9042A2CD0052A15D11D4BB6
:10869000984712E0002A10D119795A799878DB7836
:1086A0001B02034318480380184B1970184B1A70AB
:1086B0002000184B9847184B984770BD174B1B78F4
:1086C000002BFAD10122154B1A700232144B1A708A
:1086D0000800104B98472A23124A21002800124C08
:1086E000A047EAE720000B4B984701226421802035
:1086F0000E4B984702220E4B1A7012320D4B1A7015
:10870000DBE7C046E18C00000A0000200C010020DD
:108710000C000020F98C00005D8500000D01002098
:10872000741C002030430100998A0000E98B00008E
:10873000761C0020771C002010B500210E4A117015
:108740000E4A1278012A03D000220C4B1A7010BD79
:10875000002B03D00A4B1B78002B06D1094B1A784B
:10876000074B1A70084B9847EEE7013B044A137019
:10877000064B9847E8E7C0460D010020741C002016
:10878000751C00200C0000205D850000D5850000D0
:1087900010B5114B1B78012B02D0022B0BD010BD52
:1087A0000E4B1B78002BFAD10D4B1A780D4B1A701B
:1087B0000D4B9847F3E702200C4B98470C4A13786F
:1087C000013BDBB21370002BE9D10A4B9847012221
:1087D000014B1A70E3E7C046761C00200D01002013
:1087E0000C000020751C0020D5850000B58C000011
:1087F000771C00205D850000F0B5C64600B582B04C
:10880000041E33D04368002B30D0007A1130C0B240
:10881000184B9847051E29D00F239846804443469D
:108820000193071D042201A93800134EB04702220C
:1088300021004046B04711239846A844434601937F
:10884000381D042201A9B047227A61684046B0472A
:108850006B46991C237A0B8028000C300222B0470B
:108860000123AB7329000548054B984702B004BCAF
:108870009046F0BD8DBA0000DB2D0100F41C0020F5
:1088800069BC0000F0B5CE46474680B583B00E0007
:108890002F4BDB78834216D02E4B1D007235012200
:1088A0001400197881420FD001320633AB42F7D160
:1088B000022E34D0032E22D0002E36D0FF2399462C
:1088C0007F3B984619E00024214F65002919490093
:1088D00079180B7998464B79994602226B46981D78
:1088E0001D4B98472D196D007D19FF232B71022E0A
:1088F00019D0032E07D0002E06D0032604E0FF2354
:1089000099467F3B984602264346802B0FD043462C
:10891000812B14D003B00CBC90469946F0BDFF23C8
:1089200099467F3B98460126EEE7FF2399463300A0
:108930006A46063201214846084CA047EAE7330060
:108940006A46063201214846054CA047E2E7C04688
:10895000781C0020811C0020DB2D010039870000DD
:108960007D8F000010B50B480B4B98470B4B984779
:108970000B4B984700200B4B98470B4B1900783155
:10898000FF221A705A7006338B42FAD10748084BFF
:10899000984710BDF41C00205DBC00004D8600000F
:1089A0005D8D000069C400007C1C0020F987000078
:1089B0000DF0000010B50379427912021A43837951
:1089C0001B041A43C3791B0613431A78802A02D06A
:1089D000812A12D010BD017A427A12020A4301782C
:1089E000447824020C43817809040C43C1780906B9
:1089F0002143807A0A4CA047ECE7017A427A1202BE
:108A00000A430178447824020C43817809040C431A
:108A1000C17809062143807A024CA047DAE7C046B4
:108A2000758600008D8D000010B5124B9847002808
:108A300000D110BD10490220104B9847104B1B78F5
:108A4000002B10D00F4B1B7A002BF2D000210D48C9
:108A50000D4B9847041EECD004300C4B9847200077
:108A60000B4B9847E5E70B4B98470122044B1A70D4
:108A7000E8E7C04659DE0000F01C00208DDD000054
:108A80000F010020F41C0020A1BC0000B5890000EB
:108A900049BB000065890000F0B587B00C00117873
:108AA000557801280BD0002803D116246C440138D6
:108AB0002080802907D0812944D007B0F0BD002C48
:108AC000F7D1404CF5E7D9B23F4B02930123019314
:108AD0003E4B1B78009313000A00210002203C4EFD
:108AE000B047002806D10323220001212800394C79
:108AF000A047E2E7354B1F78374B1B79FF2B0FD090
:108B0000364B18007230012216001978FF2908D060
:108B1000013206338342F7D101372C4B1F70CCE76B
:108B200000262D4973009A1952008A18802010716E
:108B300055717F389070D770100002222100284BA9
:108B40009847E9E7D9B2204B0293012301931F4BC9
:108B50001B78009313000A00210002201C4EB0472E
:108B6000002815D0194B1F781B4B1B79FF2B16D0F3
:108B70001A4B18007230012216001978FF290FD005
:108B8000013206338342F7D10137104B1F7094E74F
:108B90000323220001212800124CA0478DE7002664
:108BA0000D4973009A1952008A188120107155716D
:108BB00080389070D770100002222100084B98472F
:108BC000E2E7C04638010020858800000E01002041
:108BD0008DDB000039870000781C0020821C0020FB
:108BE000DB2D01007D8F000070B50D001400802882
:108BF00002D0812819D070BD1848194B9847002819
:108C00000BD1164B9D60174A1A61002C09D1002226
:108C10001A731248144B9847EDE71048134B9847C6
:108C2000EFE701220D4B1A73F3E711480C4B9847FD
:108C300000280BD10E4B9D600E4A1A61002C09D101
:108C400000221A730A48084B9847D4E70848074B94
:108C50009847EFE70122064B1A73F3E71001002053
:108C6000E5BD00009187000011BE0000A5BD000019
:108C700024010020D18F000010B5802802D0812867
:108C800004D010BD0348044B9847FAE70348024B51
:108C90009847F6E710010020A5BD00002401002040
:108CA000012801D0014870470148FCE7340000204A
:108CB000F01C0020002806D0012809D080221203D1
:108CC000064BDA61704780221203044B5A61F9E7C0
:108CD00080221203014B9A61F4E7C046002800404D
:108CE000BFF34F8F024A034BDA60BFF34F8FFEE7AB
:108CF0000400FA0500ED00E010B501000222024870
:108D0000024B984710BDC04638010020DB2D010002
:108D10007047FFFF10B582B001AC812323707B3B0D
:108D200063700020084B98470122084B1A700423F7
:108D3000074A1370074A1370023B220000210120EA
:108D4000054CA04702B010BD118D00004401002069
:108D50003A0100203B010020998A00000023064AC6
:108D60001370064A1370064A1370064A1370642281
:108D7000054B1A807047C0463B0100203A01002095
:108D8000440100203C0100204C1D002070B51C0057
:108D90005B78052B3BD0072B00D1ADE0032B00D037
:108DA00070BD664B1B7804229343F9D10800644BD5
:108DB00098474022634B1A80E11C3C3A6248634D5D
:108DC000A847E11D04226248A847E27A614B1A7065
:108DD000614E21000C3102223000A8473388632BFA
:108DE00002D864225C4B1A80574B1A685B4B1A609E
:108DF000574B1B689B185A4A136001224F4B1A703D
:108E0000554B198800228120564B9847C8E74B4B99
:108E10001B78022BC4D140224A4B1A80E378227976
:108E200012021A4363791B041A43A3791B061343E6
:108E30004A4A12689342B3D100224B4B1A704B4DF1
:108E4000E379227A12021A432100093128003F4BAC
:108E50009847E279237A1B0213433B4A106880212A
:108E60008902081AE1782279120211436279120408
:108E70000A43A1790906114341182A0000203C4DFC
:108E8000A847E279237A1B021343344A11688C46BF
:108E900063441360324A1268934220D32C4B186803
:108EA0000022002809D080239B029C4660440022B7
:108EB00019784A4001339842FAD1264B1B789342E5
:108EC00014D0214B1A68254B1A6001221B4B1A70D3
:108ED000214B198800228120224B984760E71E4BC6
:108EE0001988002281201F4B984759E78120214B88
:108EF0009847214B984753E7104B1B78042B00D021
:108F00004EE7A178E3781B020B43217909040B4358
:108F100061790906194307D00522084B1A7000220F
:108F20008120104B98473BE70522044B1A70002222
:108F3000FA21890081200B4B984731E73B01002043
:108F4000F98C0000541D0020501D0020DB2D010075
:108F5000001D0020441D00204C1D00204001002069
:108F6000481D0020E98B00003C010020041D00206A
:108F700055C30000798C0000158D000010B51C0051
:108F800000220E4B1A700E4B1B78032B09D0002CBD
:108F900003D00B4B1B78042B09D00022084B1A700E
:108FA00010BD084B19888120074B9847EFE7002236
:108FB00006498120044B9847F2E7C046440100204F
:108FC0003A0100204C1D0020E98B0000B80B000086
:108FD00070B5A4B05B4B1B785A1E022A54D85A4B6A
:108FE0001B78002B06D0594B198800228120584B42
:108FF00098474DE0574B1B6857490A780132D2B267
:109000000A700B2A36D0554A1168554A1288D21870
:109010008A4235D9C91A524A1180042202A94A70DB
:1090200000228A700A00CB70190A1171190C517153
:109030001B0E93714A4B1B8802AAD371190A117235
:10904000002151721B0E93720322464B1A70023A92
:109050003D4B1A7001323B4B1A70812302AA1370E8
:10906000763B0120404CA047002240498120384BEC
:1090700098470DE081203E4B98473E4B984707E0CC
:109080004021374A1180C8E7042B03D0052B04D0B8
:1090900024B070BD384B9847FAE78120344B98478D
:1090A0008822002102A8354B9847012302AA137198
:1090B00004AA334B03CB03C21B88138080239B017C
:1090C0000893802292020A920B930133FF330C9390
:1090D0002C4B0D932C4B1B6801930E93342202AB47
:1090E0009B5C02210B4302A98B5402328B5C012151
:1090F0000B4302A98B544C1C24AE002308203125BD
:109100000FE05B006B40DBB2013AD2B2002A05D01F
:1091100059B20029F5DB5B00DBB2F5E70134B4425C
:1091200003D0227853400200F2E702AA137088238A
:1091300016490020164CA0473220164B9847164B74
:109140009847A5E73B010020440100204C1D00206A
:10915000E98B0000400100203C010020481D002058
:10916000541D00203A010020998A000010270000B9
:10917000798C00005D8D0000158D0000ED2D010043
:109180005C430100FF600000001D002000FF0300A1
:1091900055C30000F5610000E18C0000F0B5C64643
:1091A00000B584B014001F00294BCB1840031D18D4
:1091B000002F1AD0274B5A1E95421CD87A19934279
:1091C0001FD3C91980239B01994220D8224B98466E
:1091D0003E1C102F00D91026B6B232002900684676
:1091E000C047002E28D000231FE01C4B1C4AD92169
:1091F0001C481D4CA0471D4B194ADA2119481A4C2E
:10920000A0471B4B164ADB211648174CA047194BA9
:10921000134ADC211348144CA047FF21914212D17C
:109220000133DBB29AB2964206D96A46D25C002C70
:10923000F3D021780134F1E7BF1BBFB2AD19002F85
:10924000C6D1012000E0002004B004BC9046F0BD6F
:109250000021000000610000DB2D010068430100D7
:10926000EC44010078430100192D0100B8430100CE
:10927000D44301000844010010B50B4AFF231A42F1
:1092800006D10A4B0A498C466344934206D110BD6D
:10929000084B094A59210948094CA047094B064A7D
:1092A0005D210648064CA047002100000061000037
:1092B00000C0FFFF38440100A844010078430100CA
:1092C000192D01006844010070B5150044031348CE
:1092D00008182418124A501E84420DD8E018824201
:1092E00010D3C91880229201914211D81A0021008E
:1092F00028000C4B984770BD0B4B0C4A72210C4850
:109300000C4CA0470C4B094A73210948094CA04753
:109310000A4B064A74210648064CA047002100006B
:1093200000610000DB2D0100B8430100B4440100DE
:1093300078430100192D0100D443010008440100C5
:10934000F0B5DE4657464E464546E0B593B001922D
:109350009A46464C0C1940032518002B47D0444B25
:109360005A1E954249D85246521993424BD3D3467E
:10937000514480239B0199424BD83E4B1B68002BE4
:1093800000D098473F272F40EC1B4026F61B5E4538
:1093900000DD5646B3B29B464022FF2102A8364B61
:1093A00098473B0002AA9446634400933604370C66
:1093B0003A0001991800314B9847314B9847314E8C
:1093C000402202A92000B0470528F9D02E4B98472B
:1093D00053465A469E1AB6B2EC19019B9946B944B7
:1093E000002E3BD0244B9B46244B984631E0274B24
:1093F000274A8A212748284CA047284B244A8B21FA
:109400002448254CA047264B214A8C212148224C38
:10941000A047244B1E4A8D211E481F4CA0479FB2D7
:109420004022FF2102A8D8473A0049460098C04789
:10943000134B9847134D402202A92000A847052846
:10944000F9D0114B9847F61BB6B2E419B944002E77
:1094500004D0331C402EE2D94023E0E713B03CBCDB
:1094600090469946A246AB46F0BDC046002100009A
:109470000061000048010020ED2D0100DB2D0100FE
:10948000216200007966000061620000684301000B
:10949000C444010078430100192D0100B8430100C4
:1094A000D44301000844010070B544030C4824185B
:1094B000FF239C430B4B013B80229201A6189C4248
:1094C00007D8094D2000A8470134FF34B442F9D130
:1094D00070BD064B064AC2210648074CA047C0464D
:1094E0000021000000610000D1670000B8430100C6
:1094F000D444010078430100192D010010B5130078
:109500000022014CA04710BD9D91000010B5014CF8
:10951000A04710BD9D91000010B5054B1B68002BA6
:1095200004D0984701235840C0B210BD0020FCE78A
:10953000A8020020012909D0002902D002290DD05B
:1095400070470A4B1A8880181880F9E7074A138871
:109550000F33C0180F2398431080F1E7034A138894
:109560003F33C0183F2398431080E9E7AE02002044
:1095700030B5002919D0FF2413E02300150A6B40F1
:109580001D096B4012025A401D036A405B015A409C
:1095900092B203005D1EAB41C018013989B20029A7
:1095A00003D00028E9D00378E8E7100030BDFFFFC2
:1095B000F0B5DE46574680B589B0019002919346DA
:1095C000109A002A0DD092469A445B449DB25E46A2
:1095D000029C0120AB453ED0224F002C08D1002038
:1095E00039E000229246F0E704AB5C89002C31D0D0
:1095F000102304AA21000198B84704AB9A88AA4214
:10960000F2D2DB88D3189BB2B342EDD9AB4201D280
:109610001E00E9E7A91A89B2B24215D904AB5B89E9
:1096200003930B00ED1AADB25246002A08D0103455
:109630000919D21A9246C91A89B20198094CA04751
:10964000AE420DD0039CC8E7AB1B9BB25E46029AAC
:109650000392E7E7002009B00CBC92469B46F0BDA0
:109660000120F8E7C9920000F0B5DE46474680B514
:1096700087B0049005919579D3791B021D43177922
:1096800053791B021F432C0A64B2002C2FDB1C4BA6
:1096900003931C4B984611E0002D2AD01A4B0093DF
:1096A0002B003A0005990498184EB047002820D0A6
:1096B000290015E0013C64B2631C1AD0002CEBD0E9
:1096C000013DFF3DADB2104B009380235B003A009B
:1096D000059904980D4EB0470028EBD08021490031
:1096E0007F18BFB2039A0848C0470390E2E7044BD3
:1096F0000393039807B00CBC90469B46F0BDC04650
:10970000FFFF0000719500007C010020B195000072
:1097100070B5164B1C78002C26D0154B1B88834245
:1097200016D00123124EDAB294421BD91D00591CE7
:109730009A00B25A824201D00B00F4E79B000C4819
:10974000C018AD000A4B5D196B88002B03D070BDAB
:1097500007480025F5E7074B074A8C21FF310748EA
:10976000074CA0470020F2E70020F0E7A402002009
:109770009802002068450100504601008445010020
:10978000192D010010B5054B9847002804D08378A7
:10979000C0780002184310BD0020FCE711970000BC
:1097A00010B504000E4B984700280BD10D4B1B78C9
:1097B000022B0ED8591C0B4A11700B489B001C52EF
:1097C000C01810BD094B0A4ACC21490009480A4C6F
:1097D000A0470A4B064A9A21FF310648064CA0478B
:1097E00011970000A40200209802002010450100FB
:1097F0006046010084450100192D01002C4501003F
:1098000010B50B4B984700280BD00A4B197801393B
:10981000C9B219708900084B59180422074B9847A0
:1098200010BD074B074AD32149000748074CA04702
:1098300011970000A402002098020020DB2D0100F7
:109840004C4501007046010084450100192D0100BE
:1098500010B5054B9847002800D010BD034B187871
:10986000034B9847F9E7C046199500000D0000200A
:10987000A994000010B5084C2078084B9847207830
:10988000802292010021064B9847002803D08022B5
:109890005200044B1A8010BDAC020020A9940000B5
:1098A000FD940000AE020020F0B583B001900D00E1
:1098B0001600074F387813000A000199054CA0479D
:1098C000387833002A000199034CA04703B0F0BD5B
:1098D000AC020020419300000D95000010B586B049
:1098E00001AC4123A3701333E370013B2371053BAB
:1098F00063712833A371443BE3710390C043049028
:10990000084B1B882382084A10216B46981D074B81
:1099100098472080122221000020054B984706B06E
:1099200010BDC046A6020020FFFF00007195000098
:10993000A9980000F8B504000D00214A1388CB183F
:109940009BB21380FF2B2ED91E4B1A8880188025BE
:109950006D00AA1A1C491D4B98471D4B18882A00F8
:1099600021001C4B9847051E27D000218020400075
:10997000194B9847134B188800221A80104B1E88E9
:10998000013EFF3EB6B21E80002E16D08021490057
:10999000091A89B20C4B5918320020000B4B98471A
:1099A000084B1E8009E0074E3788C0190A00064997
:1099B000064B9847ED19358001252800F8BDC046B3
:1099C000780100204C0100207C010020DB2D0100EB
:1099D000AE020020A998000035950000F0B5DE46E3
:1099E00057464E464546E0B5D5B07B487B4B984739
:1099F00000237B4A13807B4A13807B4A13807B4A77
:109A000013807B4B1B781F00039312230FAA0021A6
:109A10003800784CA047119B0993754C250026000F
:109A200008E03370724B1B78BB420BD0724B9847E7
:109A300000280DD123780133DBB2012BF1D90023AB
:109A40002B70EFE76D4B6E4A6E496F486F4CA04725
:109A50006F4B1B78002B6AD0002306930133FF3332
:109A600099466A46D3826B4B10330893069B079343
:109A70009F00694B9C4667447B881D00049310231C
:109A80000BAA2900039880465A4CA0470BAE00232E
:109A9000B3803489F4807381B3811034A4B232006E
:109AA000290040465D4B984730805D4A0E210BA847
:109AB0005C4B9847F081574D4A46FF2128005A4B8E
:109AC00098472B0007CE07C332681A60574B1B8894
:109AD000454A12889B187B804C4504D900261023E8
:109AE0004C4A904668E00BAB1B89089A0092002212
:109AF000049903984E4EB047002863D0079B9D0001
:109B0000454B5D19494B1B88374A12889B186B805F
:109B1000210014A8474B9847002853D0069B0133D7
:109B2000DBB21A0006933A4B1B7893429ED82F4B18
:109B30001A88002A06D03D4B188814A93E4B984736
:109B4000041E40D0294B188800213C4B9847374BC6
:109B50001A883B4B1A80099801383A4B9847041EE3
:109B600031D002210020354B9847374B6A46127B93
:109B70001A70364D2800194B98472800344B9847E7
:109B800021E0ADB2EF1ABAB29346434400931300FA
:109B9000320004990398264FB847002812D02900B4
:109BA00014A8244B984700280CD0641BA4B25E4430
:109BB000B6B20023002CB1D0251C4C45E1D96A4631
:109BC000D58ADEE70024200055B03CBC904699467B
:109BD000A246AB46F0BDC04664010020A5BD000012
:109BE00090020020920200204C0100207801002009
:109BF000AC020020C99200007598000008450100E1
:109C00008C460100D503000084450100192D010098
:109C1000A40200207C010020980200206996000028
:109C2000FFFF000071950000ED2D0100AE02002045
:109C3000B195000035990000A99800003595000005
:109C4000A6020020DD9800000D0000207C0200200C
:109C500011BE000010B5074B9847002800D010BD7A
:109C6000054B9847054B064A2C21FF310548064C09
:109C7000A047C04619950000DD9900000845010085
:109C80003846010084450100192D010010B5124B22
:109C90001A8880239B019B1A9BB2834203D30F4AED
:109CA00093420AD910BD0E4B98470028FAD10D4BAC
:109CB0000D4A0E490E480F4CA0470F480F4B9847CE
:109CC0000028EFD10C4B0E4A1A610E4A5A609A6076
:109CD00000221A73E6E7C046AE0200200F0800001B
:109CE000DD990000084501009C4601004E0400007B
:109CF00084450100192D010064010020E5BD00002C
:109D0000559C000010270000F0B5DE4657464E4631
:109D10004546E0B58BB0774B98470523002807D020
:109D200018000BB03CBC90469946A246AB46F0BD2D
:109D3000714B1888002846D1704B1B88002B00D12E
:109D4000D0E06E4B18886E4B98478346002800D1B0
:109D5000CAE08278C3781B02134319000393694B4E
:109D60001878102306AA684CA047634B1A88002A6B
:109D70002ED0664B1B88059306AB1B8906A90A816A
:109D8000191C934200D9111C8BB206AA00219180A4
:109D90001089D080518191811C001034A4B25C499B
:109DA00061CA61C112680A6080225200944239D9A6
:109DB0000026102380225200914669464A82514A69
:109DC00092461A0088E0103080B2524B9847B8E7AC
:109DD00006AB1889103080B24E4B9847474B188815
:109DE000474B98478346002815D08278C3781B02DA
:109DF00013431900039306AC424B1878102322003A
:109E0000414DA847414B1B88059323893A4A128844
:109E1000002ABAD0B2E7404B404A9121C9004048DD
:109E2000404CA047374A1078394A1032009200223D
:109E300003993D4CA0470123002800D170E7344925
:109E400006AB0A00180070C870C200681060DA889B
:109E5000103292B22D4B1888344B984700230028BB
:109E600000D15DE706ABD888103080B20221304BBC
:109E700098470023214A13801F4A13805B460599A7
:109E800099700B0A5A46D370002349E7ADB2AF1A56
:109E9000BBB21900534618781D4B9B1800930291D2
:109EA0000B0032000399204FB84700281ED0174BF3
:109EB00018882A0016491D4B9847002818D00221FF
:109EC00028001B4B9847641BA4B202998C46664439
:109ED000B6B20022002CCCD0251C4C45D6D96B46FE
:109EE0005D8AD3E700231BE7002319E7012317E767
:109EF000002315E71995000092020020900200202F
:109F000011970000AC020020C9920000AE020020B0
:109F10007C0100208D9C0000F8440100B446010043
:109F200084450100192D0100B1950000A998000099
:109F30003595000010B5014B984710BD099D0000F4
:109F4000F0B5DE4657464E464546E0B583B00400C0
:109F50008A46464D80225200FF212800444B9847F4
:109F6000444EA379E1790902194332005046424F29
:109F7000B8472070000A607032000E212000B847F8
:109F8000A073000AE0731022210028003B4B984781
:109F9000A379E27912021A4315001035ADB2534687
:109FA000002B12D080235B009D4209D90026102788
:109FB00080235B009B466A46D3802C4B994645E044
:109FC00051462A4810302D4B9847A379E279120266
:109FD0001A43103280235B009A4200DD1A0092B2CD
:109FE000274B18882149274B98478046002833D0B3
:109FF000A379E07900021843103080B20221224B8D
:10A000009847404603B03CBC90469946A246AB46B2
:10A01000F0BDA4B24B46D819E21B53469919174B11
:10A020009847174B188822004946164B9847804698
:10A030000028E6D002212000134B98472D1BADB21B
:10A04000E41B3619B6B20027002DDAD02C1C5D4572
:10A05000DFD96B46DC88DCE7A379E079000218439E
:10A06000103080B20221084B9847CAE77C010020DB
:10A07000ED2D0100FFFF000071950000DB2D0100B8
:10A08000AE020020A998000035950000F0B5CE463C
:10A09000474680B591B00022B34B1A7000240123CB
:10A0A0005B429946FF27B14E12230BAA00212000E4
:10A0B000B0470D9D0E9B01936B4001331DD00134C1
:10A0C000E4B2022CF0D1FF2F57D0A94B1F704346AA
:10A0D000012B00D17BE04346022B6AD18022520043
:10A0E000A44B1A80122306AA002138009F4CA047D7
:10A0F000A04DA14B98462E000FE102AB26229B18E3
:10A100001B78412BDBD102AB01329B181B78542BFF
:10A11000D5D102AB01329B181B78532BCFD102ABA8
:10A1200001329B181B784E2BC9D102AB01329B1810
:10A130001B78762BC3D102AB01329B181B78312BD5
:10A1400006D102AB9B8C002BB9D1012398460FE0BE
:10A15000322BB4D1894A1021262002AB9C466044A0
:10A16000874B984702AB9B8C8342A8D10223984629
:10A170004D45A4D2A9462700A1E700227C4B1A70C6
:10A18000804C814E814D06E0794A13780133DBB271
:10A190001370012B15D8A0470028F5D001235B428E
:10A1A000338002204042A8470028EDD000226E4BA9
:10A1B0001A700122764B1A7011B00CBC9046994669
:10A1C000F0BD744B744A75497548764CA04710220F
:10A1D000684B1A801021664E644D694F72E006ABE1
:10A1E0001B88002B07D006ABD888103080B2012125
:10A1F000614B984761E006AB5C8820006A4B98474A
:10A20000002810D05B4B1A7882705B78C37006AB65
:10A210001B89002B0BD006ABD888103080B20121EF
:10A22000554B984749E02000604B9847EAE72000EB
:10A230005F4B9847EFE74F4B19884D4B187802AAB0
:10A240005C4B984702AB1B88834207D002ABD8888F
:10A25000103080B22100484B98475EE002AB5F8827
:10A260003800514B9847002810D0424B1A78827022
:10A270005B78C37002AB1B89002B0BD002ABD88874
:10A28000103080B221003C4B984746E03800474BE5
:10A290009847EAE73800464B9847EFE706ABDC897A
:10A2A000364A0C21122002AB9C466044B8478442D7
:10A2B00095D001211020304B98472E4B19883E4BEA
:10A2C000994212D806AC307810232200A847237890
:10A2D000FF2BE3D106AB1F2102AA944661445A78B2
:10A2E000FF2ADBD101338B42F9D1344B9847002848
:10A2F00000D05EE7274B324A32492948294CA04713
:10A3000002ABDF891D4A0E2118001D4B984787427A
:10A3100091D021001020184B98472B88264A934251
:10A3200000D946E706AA128A14498A4202D00024BC
:10A330009A4203D802210020C047022431880C4BE6
:10A340001878102302AA094FB84702AB1B78FF2BDD
:10A35000D6D102AB0F219C4661445A78FF2ACFD157
:10A3600001338B42F9D124E7A4020020C9920000F6
:10A37000AC020020AE02002035950000FFFF000077
:10A380007195000075980000A6020020DD9800007D
:10A390009402002008450100C04601002B05000082
:10A3A00084450100192D010011970000A1970000BC
:10A3B0000198000069960000FF1F0000DD99000071
:10A3C000804601003603000010B5084B1B78002BB7
:10A3D00008D0074B074A1A61074A5A609A60002260
:10A3E0001A7310BD054B9847F3E7C046940200204E
:10A3F0007C02002051980000581B00008DA0000036
:10A40000F0B5CE46474680B587B0040001911500EF
:10A410001F0000280CD0002B0AD0354B984705238D
:10A4200000280BD0180007B00CBC90469946F0BD30
:10A43000304B314A31493248324CA0472800103065
:10A4400080B2314B98472000304B984706000323D9
:10A450000028E7D08378C47824021C43A0462C4B04
:10A460001878102302AA21002A4CA04702AB1989B0
:10A47000019B5A1904238A42D4D802AB6A469288B7
:10A480009A80DD8042465A818D422CD002AB9B8956
:10A49000013302AA9381204B1C88390002A81F4B6C
:10A4A000984701230028BDD0B470240AF47002AB91
:10A4B0009A890023642AB5D902AB5A88184B1A80AE
:10A4C0000022184B1A801848184B98470023002880
:10A4D000A8D1154B164A1A61164A5A609A60002292
:10A4E0001A7300239EE7002302AA9381D3E7C04694
:10A4F0001995000018460100E44601009605000089
:10A5000084450100192D01008D9C00001197000069
:10A51000AC020020C9920000AE020020419F000062
:10A52000900200209202002050010020E5BD0000B2
:10A53000359F0000B80B0000F0B583B00C0015008B
:10A540001E00002809D0002B07D0104B984703238A
:10A55000002808D1180003B0F0BD0D4B0D4A0E497C
:10A560000E480F4CA04762190E4901338A42F1D8B8
:10A570000D4B1F7800962B002200010038000B4C79
:10A58000A047434243419B00E4E7C0468597000053
:10A5900018460100F4460100EE0500008445010064
:10A5A000192D0100FFFF0000AC020020B195000052
:10A5B00010B584B0002805D00A4B9847011E07D17A
:10A5C00004B010BD084B094A09490A480A4CA04783
:10A5D0000A4B187810236A46094CA0476B46188925
:10A5E000EEE7C046859700000C46010004470100D5
:10A5F0000B06000084450100192D0100AC0200206B
:10A60000C9920000F0B585B004000E001500431E8D
:10A610009BB22E4A93421ED880231B0199421AD81E
:10A620002B4B984700281DD020002A4B9847864284
:10A6300007D0294B1C80294B1E80294B9847031EAD
:10A6400015D1002D40D02B00320000212000254CD8
:10A65000A04703000BE0244B244AAA21C900244848
:10A66000244CA047244B98470523002802D018000B
:10A6700005B0F0BD3000103080B2204B9847204B21
:10A680001B78022B19D81F4B1F886B465C80002358
:10A690006A469380D680168153819381290068464B
:10A6A000194B984701230028E1D02000174B984709
:10A6B00087703F0AC7700223D9E7154B0B4AAF21B9
:10A6C000C9000B480B4CA0470023D0E7FEEF000069
:10A6D00085970000B1A500009002002092020020A2
:10A6E000099D000039A50000CC450100D0460100BD
:10A6F00084450100192D0100199500008D9C000072
:10A70000A4020020AE020020419F0000A19700009B
:10A710002C450100F0B5CE4600B504001C4B98470F
:10A720000523002803D0180004BC9146F0BD002C7E
:10A7300005D0184CA0470120A0470023F3E7164B93
:10A740001F78002F20D000240025144B9946144E6A
:10A7500003E00134E3B29F4209D9A3004A46985A64
:10A76000B042F6D00F4B98470135EDB2F1E7002D1E
:10A770000CD00D4B984700230028D4D10B4B0C4A2A
:10A780000C490D480D4CA0470023CCE70023CAE735
:10A7900019950000A9940000A4020020980200204E
:10A7A000FF0F000001980000DD990000084501003E
:10A7B0001C4701006B06000084450100192D0100B3
:10A7C00010B5034B9847431E9841C0B210BDC04618
:10A7D00085970000F0B5D646474680B587B00F0094
:10A7E000204B984212D0430415D4C308CF18072336
:10A7F0001840063B83403A7813433B700123019392
:10A80000019807B00CBC90469A46F0BDFE230B7031
:10A81000FD3B0193F4E704A9134B984701900028EE
:10A82000EED004AB9B889846002BE9D0002402AB05
:10A830009D1D0E4B9A4607266100049B9C46614471
:10A8400002222800D0472988CA08BA1831400123BB
:10A850008B4011780B4313700134E4B2A3B243452B
:10A86000EAD3CDE7024000002DAD0000DB2D010052
:10A87000F0B5D646474680B589B007A900230B70CE
:10A88000274B9847061E43D00024264F264B9A4656
:10A89000264B984610E0264B264AAB214900264815
:10A8A000264CA047264B234A6821FF312248234CDF
:10A8B000A0470134082C2BD007AB1B78E340DB0703
:10A8C000F7D5A5B203A92800B84700281FD003ABCD
:10A8D0005B88002BDFD0049B002BDCD0059B002B7A
:10A8E00000D098472800D047019003AB049A5988BC
:10A8F0002800C047022811D00028D3D103AB5A88C2
:10A900000499019B28000F4DA8470028D1D10026AB
:10A91000300009B00CBC90469A46F0BD0026F7E71F
:10A92000D5A7000021AC0000B1A5000005A60000DD
:10A9300030470100284801006C470100192D010033
:10A94000B847010081AC000010B50549054B984798
:10A95000041E01D1200010BD0020034B9847F9E7E9
:10A96000B4020020D5A7000081AB000010B5034B56
:10A97000984743425841C0B210BDC04615A70000D9
:10A98000F0B585B03E4B1B780133072213403D4A9A
:10A99000177838001E003A00DA40D20731D401336C
:10A9A000DBB20722072501242B401E000100D940FD
:10A9B0000C4226D10133DBB2013AD2B2002AF3D1E4
:10A9C0000124E400E41820002F4B9847002824D1EC
:10A9D000694620002D4B9847002838D0029B002B59
:10A9E00000D09847019A6B4659882000284B984719
:10A9F000FD2318422BD0274B274AEB212748284C10
:10AA0000A0470122B24097431E4A17700021254AF1
:10AA100011701B4A13700024D3E7694620001B4BBA
:10AA20009847002813D06B465B88002B15D0019BFC
:10AA3000002B12D0029B002B00D09847019B6A4646
:10AA4000528800212000184CA04700280CD10D4B43
:10AA50001B78002B0FD105B0F0BD144B144A9A217E
:10AA600049000E480E4CA047124B114AA121490043
:10AA70000A480B4CA04700200F4B9847EBE7C04615
:10AA8000B5020020B4020020C1A7000021AC0000E4
:10AA900005A60000B8470100004801006C4701000E
:10AAA000192D0100B002002001A400003047010070
:10AAB000184801003848010081AB0000F0B585B0AE
:10AAC00003A900230B700C4B98470190002810D06D
:10AAD000002403AD0127094E02E00134082C08D000
:10AAE0002B78E3401F42F8D0A0B2B0470028F4D141
:10AAF0000190019805B0F0BDD5A70000C1A70000E6
:10AB000010B5024B9847024B984710BD7992000050
:10AB1000C9A3000030B585B00124124D09E0124BE5
:10AB2000124A50311248134CA0470134A4B2032CEE
:10AB300015D069462000A8470028F6D06B465988F2
:10AB40000029ECD0002220000B4B9847FD2318422F
:10AB5000EBD00A4B054A5B210548064CA04705B0DF
:10AB600030BDC04621AC000054480100AC48010093
:10AB700068480100192D010005A60000B847010032
:10AB8000034A0123834011780B4313707047C0467A
:10AB9000B602002070B50D4B1D78002D12D0280094
:10ABA000EB0710D4002301240133DBB219000200AB
:10ABB000DA401442F8D001238B405D40034B1D70F6
:10ABC000034B984770BD0021F5E7C046B602002050
:10ABD00081A9000070B50E4C08220E4920000E4BD2
:10ABE000984721000E3102200C4DA84721000C315E
:10ABF0000120A847210010310020A847210008317A
:10AC00000520A847210011310620A84770BDC04685
:10AC1000581D002034000020DB2D01008DDD0000D8
:10AC2000F0B585B00C006A46134B6946E0CBE0C135
:10AC30001B680B601388834217D06A460E4B103393
:10AC40006946E0CBE0C11B680B60138883420CD0DF
:10AC5000094B20336946E0CBE0C11B680B601388C9
:10AC6000834202D0002005B0F0BD102269462000CA
:10AC7000024B98470120F6E700610000DB2D010040
:10AC800030B585B005000C009A4208D069461E4BCD
:10AC90009847002803D06B461B7BDB0704D5012DAA
:10ACA00009D0012005B030BD184B194ABC21FF3135
:10ACB0001848194CA0472378FF2B09D1631C2000AA
:10ACC00018301A78FF2A03D101338342F9D1E8E71B
:10ACD000082221001148124B984721000E31022012
:10ACE000104DA84721000C310120A8472100103148
:10ACF0000020A8470C4C21000520A847210009315D
:10AD00000620A847CDE7C04621AC0000CC48010092
:10AD1000BC480100F8480100192D01003400002052
:10AD2000DB2D0100D5D70000601D002070B582B07A
:10AD30000C006B46084A694660CA60C1DA88002385
:10AD4000824202D0180002B070BD0822694620007D
:10AD5000024B98470123F5E720610000DB2D01003D
:10AD600010B5054C0A2205492000054B98470A21D9
:10AD70002000044B984710BD701D002089AD0000D5
:10AD8000356A0000716A000010B50248024B98470E
:10AD900010BDC046701D0020BD68000000B585B024
:10ADA00001236A46937013710022029203920132CA
:10ADB000FF3269460A806A46CB7004490448054B55
:10ADC0009847054B984705B000BDC046002000409D
:10ADD000701D00209969000061AD000070B500236E
:10ADE000002801D1180070BDFA24A40044430F4D7F
:10ADF0000022210028000E4B98470E4B9847280050
:10AE00000D4B98470D4B984704228023DB055A7061
:10AE10001A005378042BFCD1BFF34F8F30BF084B7F
:10AE200098472000074B98470123DBE7701D00205F
:10AE30003569000061AD00008968000051CA00005A
:10AE400071CA00002DBF000010B50278084B1A70BF
:10AE500042785A700A78074C22704A7862701888D3
:10AE6000054B98472088054B9847012010BDC046E8
:10AE7000AC1D0020C41D00209DB700007DB7000060
:10AE800010B5002803D0FF2805D0002002E0044BB5
:10AE90009847012010BD034B98470120FAE7C046B0
:10AEA000C9B70000F5B7000010B5002809D10B782C
:10AEB0001A2B07D8044A13701800044B9847012036
:10AEC00000E0002010BDC046C61D002021B80000D3
:10AED00030B583B06C46009001910F4B98470F4DF1
:10AEE0002B0006CC06C30E4B9847040001200D4BE7
:10AEF00098470D4B1C7068680C4B98470C4B002210
:10AF00001A707F215A547F315A547E21FF315A548E
:10AF1000012003B030BDC046EDB60000B41D0020D6
:10AF200099B8000069B70000A81D00200DB9000005
:10AF3000C81D0020F0B5DE4657464E464546E0B5F2
:10AF4000A5B001900E000291111C1400240A039276
:10AF500000932EAA15782FAA13789B46C7B2B8067D
:10AF6000C30F9946C9B2E2B27B0700D50121032382
:10AF70003B40012B3BD05C425C41E0B2824601ACDD
:10AF800064897B480088A04234D00024072084468E
:10AF90008846614608314046002800D00639002A1C
:10AFA00037D00231C9B28C4624213940202934D00F
:10AFB000032B36D004A9AC4463460B7053464B7048
:10AFC00001A94B465B019C460878202398436346C1
:10AFD000184308708446C1438B072AD04346002B90
:10AFE00049D0002A2FD0882004A988702EE00320A1
:10AFF0008246C4E75F48844207D04024504620433D
:10B0000082463F3C05208446C2E700240720844650
:10B01000BEE70831C9B28C46C6E7504608438246AF
:10B02000C6E701220023994600249A4607339C462E
:10B03000C0E704A9802088704F4E3078431C3370DD
:10B04000C87004212EE0C82004A988704A490878F5
:10B05000431C0B7004A9C87001A8837A0B71C07AD5
:10B06000487163465B0718D404A9307888717078FA
:10B07000C871082116E0002A5CD004A98C208870D1
:10B080003D4B1878471C1F70C87001AB987A087147
:10B09000D87A487163465B0760D504A9FF208871A0
:10B0A000C8710821002C09D1481CC0B204AC304E34
:10B0B000337863540231C9B276782654002A2AD0F4
:10B0C00004A82E4C227842548A1CD2B20131C9B253
:10B0D00064784454002D0AD000995519EDB204AE9D
:10B0E000501C0C78B4540131C2B29542F8D1244AB4
:10B0F000009B1360234B309A1A60234B5A461A70F8
:10B1000004A8224B9847012025B03CBC90469946A4
:10B11000A246AB46F0BD1E4A50680B000833DBB2B6
:10B1200004AE4A1CD2B204787454013011009A4221
:10B13000F7D1CFE704A9CC2088700F4B9846187838
:10B14000431C994643464F461F70C87001A8837A36
:10B150000B71C07A487163465B079ED4002004AB34
:10B160001918335C8B7101300828F8D10E2199E74A
:10B17000C41D0020FFFF0000A81D0020AC1D002002
:10B18000C0020020B8020020BC0200204DB8000020
:10B19000B41D0020044B1B78032B04D8DA01D31A0A
:10B1A0000021024A995470470E000020C81D00205B
:10B1B00070B5FF22CE4B1A70CE4B1B78002B00D0FF
:10B1C000BFE17F33CB4AD35C002B0BD1FE33D35C82
:10B1D000002B30D17E23FF33D35C00200322002BD1
:10B1E00001D170BD0122C24B1A700020032AF8D889
:10B1F0001000D101891ABF4B5B185D7840242540AF
:10B20000BD4900240C70CC73013C0C829B78332127
:10B210008B43D9B2882900D1C4E00ED9D9B2C8294C
:10B2200046D0CC2900D18AE08C2900D104E1B34B6F
:10B2300098470020D5E70222D5E7082B00D131E15D
:10B240008029F4D1AC4B1978042421438024644232
:10B25000214319700121D973A64CD101881A2118F4
:10B260000D791D7449795974D1018A1A911D0919F2
:10B270005960015D0B391973083212199A609C4BA1
:10B280001B78D901C91A9B4A521851780A0700D570
:10B2900029E107220A40012A00D131E1002A00D128
:10B2A00049E1032A00D13EE1944B9847002098E7FA
:10B2B000D101891A8F4B5B189B79FF2B1CD08E49CB
:10B2C0000C7880235B4223430B70002D21D0894CE6
:10B2D000C301181A23181D790D745B794B74D301BF
:10B2E0009A1A130008331B194B60035D133B0B7351
:10B2F000103212198A60C2E7D101891A7D4B5B189E
:10B30000DB79FF2BDBD17C490B78042423430B70C2
:10B31000D5E77949774CC301181A23181D7A0D74A3
:10B320005B7A4B74D3019A1A13000A331B194B60D2
:10B33000035D153B0B73123212198A609FE76E4949
:10B340000C7880235B4223430B70002D14D0694C92
:10B35000D301981A23181D790D745B794B74D301AE
:10B360009A1A13000E331B194B60035D193B0B73C4
:10B37000163212198A6082E75F495E4CD301981A2F
:10B3800023189D7B0D74DB7B4B74D3019A1A130039
:10B3900010331B194B60035D1B3B0B7318321219E2
:10B3A0008A606CE7D101891A524B5B189B79FF2B9D
:10B3B0001FD0514B1C788021494221431970012133
:10B3C000D973002D22D119004A4CC301181A231831
:10B3D0001D7A0D745B7A4B74D3019A1A13000A33E9
:10B3E0001B194B60035D0F3B0B730C3212198A6003
:10B3F00045E7D101891A3F4B5B18DB79FF2BD8D188
:10B400003D490B78042423430B70D2E73A49394C69
:10B41000C301181A23181D790D745B794B74D3017D
:10B420009A1A130008331B194B60035D0D3B0B7315
:10B430000A3212198A6022E72F4B1C788021494278
:10B44000214319700121D973002D15D01900294C01
:10B45000D301981A23181D790D745B794B74D301AD
:10B460009A1A13000E331B194B60035D133B0B73C9
:10B47000103212198A6002E71F491E4CD301981A34
:10B4800023185D7B0D749B7B4B74D3019A1A1300B8
:10B490000F331B194B60035D153B0B7312321219EE
:10B4A0008A60ECE6D101891A124B5B189B79FF2B5D
:10B4B0000CD011490F4CC301181A035D0A3B0B73E2
:10B4C000D3019A1A083212198A60D8E6D101891A72
:10B4D000084B5B18DB79FF2BEBD107490B78042471
:10B4E00023430B70E5E7054B9847002079E6C046FB
:10B4F0000E000020C81D00201028002095B100007B
:10B5000012490A78032082430A70114AD901CB1AE2
:10B51000985C0E49D3181A18013A12788A731B5C8A
:10B520004B7301205DE609490A780320824301201C
:10B5300002430A70E9E705490A78032002430A70CA
:10B54000E3E70022034B1A7052E6C04610280020A1
:10B55000C81D00200E000020054B1B78002B04D0D6
:10B56000830018188300C018704732335843FBE734
:10B570000428002000487047FF070000024B1870A5
:10B580000122024B1A707047BC1D0020B702002038
:10B5900010B50B4B98470B4B1B68002B03D00A4A86
:10B5A0001278002A00D110BD084A126808490978AB
:10B5B0000848007898470022034B1A70F3E7C0460A
:10B5C0002DB90000B8020020B7020020C002002000
:10B5D000BC1D0020BC020020074B1878030703D4D1
:10B5E0004007C00F64387047142318401438434292
:10B5F00058416238F7E7C046C602002010B5134B29
:10B600001B78002B10D10022114B1A70114C21789D
:10B610001420114B98472378002B09D00B4B197835
:10B6200013200D4B984710BD0422094B1A70EDE70B
:10B6300008200A4B98471F2301009943034B1878B1
:10B640000143C9B20820044B9847ECE7C50200202B
:10B65000C6020020C402002005C7000009C6000081
:10B66000F8B504000F4B1B78022B16D00E4F0F4E6F
:10B670001F2503210220B8470120B0472840082891
:10B68000F7D1094F094E1F2521000220B84701209C
:10B69000B04728408442F7D1F8BD80225203044BC2
:10B6A0005A61E3E74903002005C7000009C600000E
:10B6B0000028004010B50820084B98470F20084B81
:10B6C0009847084B1B78002B00D110BD1620034B68
:10B6D00098470122044B1A70F7E7C04661B6000094
:10B6E00009C60000480300204903002070B5164B2E
:10B6F0009847164B98470023154A1370154A137044
:10B700000C20154B98473F231840144B187001220A
:10B71000134B1A70134E104D1F2408210220B047FE
:10B720000120A84720400828F7D12E2104380D4CCD
:10B73000A04794210C20A04703211620A0470021F8
:10B740000520A04770BDC046BDC40000D9C500009B
:10B7500048030020C402002009C60000C6020020E1
:10B760004903002005C7000010B5024B1870024BBA
:10B77000984710BD48030020B5B6000030B583B02F
:10B780006B469D1DD880C1B22220034CA04769782A
:10B790002320A04703B030BD05C7000070B582B0BC
:10B7A0006B469E1DD880C4B221002020054DA847BD
:10B7B000767831002120A847A419E1B22D20A847AE
:10B7C00002B070BD05C7000010B5074B1B78022BF7
:10B7D00009D00820054B984780225203044B9A61F8
:10B7E0000222014B1A7010BD4903002061B600000F
:10B7F0000028004010B5074B1B78022B00D010BD6D
:10B8000080225203044B5A61044B98470122014B9A
:10B810001A70F4E74903002000280040B5B6000084
:10B8200010B5064B1870064B1B78022B02D0054B47
:10B83000984710BD044B9847F9E7C046C502002061
:10B8400049030020FDB50000F5B7000010B5040065
:10B8500019200C4B98470F200B4B984721788B1CD5
:10B8600023700131C9B22000084B98470322084BCE
:10B870001A70084B802252039A61C046C0465A6132
:10B8800010BDC04661B6000009C6000035C9000001
:10B890004903002000280040F0B5C64600B582B03C
:10B8A0001520154B98470190802149420143C9B2A8
:10B8B0001520124B98470620114B9847002500246D
:10B8C000104B98460C4F03260120C0470620B8476E
:10B8D00040093040A8400443A4B20235102DF3D1F2
:10B8E000094B984701991520044B9847200002B056
:10B8F00004BC9046F0BDC04609C6000005C7000064
:10B9000061B60000C9610000B5B6000070B5050061
:10B910002424054E29782000B04701350134E4B2D3
:10B920002C2CF7D170BDC04605C70000F0B5C64647
:10B9300000B582B03E4B1B78022B0AD00F203D4B46
:10B940009847030705D53A4B1B78012B05D0032BED
:10B9500054D002B004BC9046F0BD0720354B984748
:10B960008046354B1F78002F0ED07F23324AD35CA0
:10B97000002B3FD0FE23D35C002B3DD07E23FF3332
:10B98000D35CFF27002B33D06B46DC1D0121200048
:10B990002A4DA84721780231C9B22948A8473E005C
:10B9A0002478A51CEDB2FB01DB1B234A9D547D2DA1
:10B9B0000ED8023401220123F901C91B1E48401888
:10B9C0001F4FB95C81540133DBB21A009C42F8DA94
:10B9D0001C4B9847F3019B1B174EF61840447055BB
:10B9E000144D1F240120A84720401628FAD1B0E7A3
:10B9F000FC3FC9E70127C7E70227C5E702200D4B37
:10BA000098474009C4B2002C04D0032C0BD0052C5D
:10BA10000BD001240C4B98470122054B1A702000D3
:10BA20000A4B984795E70224F4E70324F2E7C0465F
:10BA30004903002009C60000C81D002005C80000F9
:10BA4000C8020020D9B50000B5B600007DB50000E1
:10BA500010B50B4A501E0324A043011D094B196069
:10BA60005342A343C0246401A44662449B18064A7F
:10BA70001360C3600123037400234360836010BD1F
:10BA80005403002050030020541B002070B5050013
:10BA9000294B1B68002B12D0002D47D029000F31F5
:10BAA000032399430431254B1868814240D8224B27
:10BAB0001B68002B3ED000260124644205E0204B89
:10BAC0009847E9E71B68002B0AD01A7B002AF9D0B7
:10BAD0009A689142F6D8A242F4D21E001400F1E70F
:10BAE0000024002E12D0B3685B1A142B10D8002348
